{"contracts/VotingSystem_WithToken.sol":{"VotingSystem_WithToken":{"abi":[{"inputs":[{"internalType":"address","name":"_votingTokenAddress","type":"address"}],"stateMutability":"nonpayable","type":"constructor"},{"anonymous":false,"inputs":[{"indexed":true,"internalType":"uint256","name":"electionId","type":"uint256"},{"indexed":false,"internalType":"uint256","name":"candidateId","type":"uint256"},{"indexed":false,"internalType":"string","name":"name","type":"string"}],"name":"CandidateAdded","type":"event"},{"anonymous":false,"inputs":[{"indexed":true,"internalType":"uint256","name":"electionId","type":"uint256"},{"indexed":false,"internalType":"string","name":"title","type":"string"}],"name":"ElectionCreated","type":"event"},{"anonymous":false,"inputs":[{"indexed":true,"internalType":"uint256","name":"electionId","type":"uint256"},{"indexed":false,"internalType":"bool","name":"isActive","type":"bool"}],"name":"ElectionStatusChanged","type":"event"},{"anonymous":false,"inputs":[{"indexed":true,"internalType":"address","name":"operator","type":"address"}],"name":"OperatorAdded","type":"event"},{"anonymous":false,"inputs":[{"indexed":true,"internalType":"address","name":"operator","type":"address"}],"name":"OperatorRemoved","type":"event"},{"anonymous":false,"inputs":[{"indexed":true,"internalType":"uint256","name":"electionId","type":"uint256"}],"name":"ResultsFinalized","type":"event"},{"anonymous":false,"inputs":[{"indexed":true,"internalType":"address","name":"voter","type":"address"},{"indexed":false,"internalType":"uint256","name":"amount","type":"uint256"}],"name":"TokensSpent","type":"event"},{"anonymous":false,"inputs":[{"indexed":true,"internalType":"address","name":"voter","type":"address"},{"indexed":true,"internalType":"uint256","name":"electionId","type":"uint256"},{"indexed":false,"internalType":"uint256","name":"candidateId","type":"uint256"}],"name":"VoteCast","type":"event"},{"anonymous":false,"inputs":[{"indexed":true,"internalType":"address","name":"voter","type":"address"},{"indexed":true,"internalType":"uint256","name":"electionId","type":"uint256"}],"name":"VoterRegistered","type":"event"},{"inputs":[],"name":"TOKENS_REQUIRED_TO_VOTE","outputs":[{"internalType":"uint256","name":"","type":"uint256"}],"stateMutability":"view","type":"function"},{"inputs":[{"internalType":"address","name":"_operator","type":"address"}],"name":"addAuthorizedOperator","outputs":[],"stateMutability":"nonpayable","type":"function"},{"inputs":[{"internalType":"uint256","name":"_electionId","type":"uint256"},{"internalType":"string","name":"_name","type":"string"},{"internalType":"string","name":"_description","type":"string"}],"name":"addCandidate","outputs":[],"stateMutability":"nonpayable","type":"function"},{"inputs":[],"name":"admin","outputs":[{"internalType":"address","name":"","type":"address"}],"stateMutability":"view","type":"function"},{"inputs":[{"internalType":"address","name":"","type":"address"}],"name":"authorizedOperators","outputs":[{"internalType":"bool","name":"","type":"bool"}],"stateMutability":"view","type":"function"},{"inputs":[{"internalType":"uint256","name":"_electionId","type":"uint256"},{"internalType":"address","name":"_voter","type":"address"}],"name":"canVote","outputs":[{"internalType":"bool","name":"","type":"bool"}],"stateMutability":"view","type":"function"},{"inputs":[{"internalType":"uint256","name":"_electionId","type":"uint256"},{"internalType":"uint256","name":"_candidateId","type":"uint256"}],"name":"castVote","outputs":[],"stateMutability":"nonpayable","type":"function"},{"inputs":[{"internalType":"string","name":"_title","type":"string"},{"internalType":"string","name":"_description","type":"string"},{"internalType":"uint256","name":"_startTime","type":"uint256"},{"internalType":"uint256","name":"_endTime","type":"uint256"}],"name":"createElection","outputs":[{"internalType":"uint256","name":"","type":"uint256"}],"stateMutability":"nonpayable","type":"function"},{"inputs":[],"name":"electionCount","outputs":[{"internalType":"uint256","name":"","type":"uint256"}],"stateMutability":"view","type":"function"},{"inputs":[{"internalType":"uint256","name":"","type":"uint256"}],"name":"elections","outputs":[{"internalType":"string","name":"title","type":"string"},{"internalType":"string","name":"description","type":"string"},{"internalType":"uint256","name":"startTime","type":"uint256"},{"internalType":"uint256","name":"endTime","type":"uint256"},{"internalType":"bool","name":"isActive","type":"bool"},{"internalType":"uint256","name":"candidateCount","type":"uint256"},{"internalType":"uint256","name":"totalVotes","type":"uint256"},{"internalType":"bool","name":"resultsFinalized","type":"bool"},{"internalType":"address","name":"creator","type":"address"},{"internalType":"uint256","name":"createdAt","type":"uint256"},{"internalType":"uint256","name":"updatedAt","type":"uint256"}],"stateMutability":"view","type":"function"},{"inputs":[{"internalType":"uint256","name":"_electionId","type":"uint256"}],"name":"finalizeElection","outputs":[],"stateMutability":"nonpayable","type":"function"},{"inputs":[{"internalType":"uint256","name":"_electionId","type":"uint256"},{"internalType":"uint256","name":"_candidateId","type":"uint256"}],"name":"getCandidateInfo","outputs":[{"internalType":"string","name":"name","type":"string"},{"internalType":"string","name":"description","type":"string"},{"internalType":"uint256","name":"voteCount","type":"uint256"}],"stateMutability":"view","type":"function"},{"inputs":[{"internalType":"uint256","name":"_electionId","type":"uint256"}],"name":"getElectionInfo","outputs":[{"internalType":"string","name":"title","type":"string"},{"internalType":"string","name":"description","type":"string"},{"internalType":"uint256","name":"startTime","type":"uint256"},{"internalType":"uint256","name":"endTime","type":"uint256"},{"internalType":"bool","name":"isActive","type":"bool"},{"internalType":"uint256","name":"candidateCount","type":"uint256"},{"internalType":"uint256","name":"totalVotes","type":"uint256"},{"internalType":"bool","name":"resultsFinalized","type":"bool"},{"internalType":"address","name":"creator","type":"address"},{"internalType":"uint256","name":"createdAt","type":"uint256"}],"stateMutability":"view","type":"function"},{"inputs":[{"internalType":"uint256","name":"_electionId","type":"uint256"}],"name":"getVoterAddresses","outputs":[{"internalType":"address[]","name":"","type":"address[]"}],"stateMutability":"view","type":"function"},{"inputs":[{"internalType":"uint256","name":"_electionId","type":"uint256"},{"internalType":"address","name":"_voter","type":"address"}],"name":"getVoterInfo","outputs":[{"internalType":"bool","name":"isRegistered","type":"bool"},{"internalType":"bool","name":"hasVoted","type":"bool"},{"internalType":"uint256","name":"voteTimestamp","type":"uint256"},{"internalType":"uint256","name":"vote","type":"uint256"},{"internalType":"bytes32","name":"voterHash","type":"bytes32"}],"stateMutability":"view","type":"function"},{"inputs":[{"internalType":"address","name":"_operator","type":"address"}],"name":"isAuthorizedOperator","outputs":[{"internalType":"bool","name":"","type":"bool"}],"stateMutability":"view","type":"function"},{"inputs":[{"internalType":"uint256","name":"_electionId","type":"uint256"},{"internalType":"address","name":"_voter","type":"address"}],"name":"registerVoter","outputs":[],"stateMutability":"nonpayable","type":"function"},{"inputs":[{"internalType":"address","name":"_operator","type":"address"}],"name":"removeAuthorizedOperator","outputs":[],"stateMutability":"nonpayable","type":"function"},{"inputs":[],"name":"votingToken","outputs":[{"internalType":"contract VotingToken","name":"","type":"address"}],"stateMutability":"view","type":"function"},{"inputs":[{"internalType":"address","name":"_to","type":"address"},{"internalType":"uint256","name":"_amount","type":"uint256"}],"name":"withdrawTokens","outputs":[],"stateMutability":"nonpayable","type":"function"}],"evm":{"bytecode":{"linkReferences":{},"object":"6080346100e557601f611ff438819003918201601f19168301916001600160401b038311848410176100ea578084926020946040528339810103126100e557516001600160a01b038116908190036100e557600160005580156100a05760018060a01b031990816001541617600155339060025416176002553360005260036020526040600020600160ff19825416179055604051611ef390816101018239f35b60405162461bcd60e51b815260206004820152601b60248201527f446972656363696f6e20646520746f6b656e20696e76616c69646100000000006044820152606490fd5b600080fd5b634e487b7160e01b600052604160045260246000fdfe6080604052600436101561001257600080fd5b60003560e01c806306b091f9146118d35780631537052e14611822578063181d989b14610b0e5780632c0a3f8914611346578063404d2cf81461123e5780635e6fef011461116457806373a12f5a146110825780637ad36e8414610b4d57806382d52c1e14610b0e578063929504a114610aeb57806394c790bb146108c3578063997d2830146108a5578063b03401231461087c578063c5326ebc146107b4578063cdb2867b14610784578063ce99b5df146106ab578063e3f8a79c146105e5578063e6c62efc146101b3578063f851a4401461018a5763fbc759a1146100f857600080fd5b3461018557604036600319011261018557600435610114611a17565b906101226005548210611c3d565b600052600460205260086040600020019060018060a01b031660005260205260a06040600020805490600181015490600360028201549101549160ff604051948181161515865260081c1615156020850152604084015260608301526080820152f35b600080fd5b34610185576000366003190112610185576002546040516001600160a01b039091168152602090f35b346101855760603660031901126101855760243567ffffffffffffffff8111610185576101e4903690600401611b85565b60443567ffffffffffffffff811161018557610204903690600401611b85565b9060018060a01b0360025416331480156105cc575b61022290611bdc565b61023160055460043510611c3d565b600435600052600460205261025160ff600a604060002001541615611c82565b805115610587576004356000526004602052604060002091600683019081549161027a83611c18565b905560405193606085019185831067ffffffffffffffff8411176104aa5760059260405284865260208601526000604086015282600052016020526040600020835180519067ffffffffffffffff82116104aa5781906102da8454611a43565b601f8111610537575b50602090601f83116001146104cb576000926104c0575b50508160011b916000199060031b1c19161781555b602084015180519067ffffffffffffffff82116104aa576103336001840154611a43565b601f811161045f575b50602090601f83116001146103ca5795826002936040937fed8911b3df733b7d5f75724158e54478ea12e30f49c9d31b5261879f5b76586f98996000926103bf575b50508160011b916000199060031b1c19161760018501555b015191015560405190815260406020820152806103ba600435946040830190611b45565b0390a2005b01519050898061037e565b90601f198316916001850160005260206000209260005b8181106104475750936040937fed8911b3df733b7d5f75724158e54478ea12e30f49c9d31b5261879f5b76586f989993600193836002981061042e575b505050811b016001850155610396565b015160001960f88460031b161c1916905589808061041e565b929360206001819287860151815501950193016103e1565b600184016000526020600020601f840160051c810191602085106104a0575b601f0160051c01905b818110610494575061033c565b60008155600101610487565b909150819061047e565b634e487b7160e01b600052604160045260246000fd5b0151905086806102fa565b9250836000526020600020906000935b601f198416851061051c576001945083601f19811610610503575b505050811b01815561030f565b015160001960f88460031b161c191690558680806104f6565b818101518355602094850194600190930192909101906104db565b909150836000526020600020601f840160051c810160208510610580575b90849392915b601f830160051c820181106105715750506102e3565b6000815585945060010161055b565b5080610555565b60405162461bcd60e51b815260206004820152601e60248201527f456c206e6f6d627265206e6f20707565646520657374617220766163696f00006044820152606490fd5b503360009081526003602052604090205460ff16610219565b34610185576020366003190112610185576105fe611a01565b6002546001600160a01b0391906106189083163314611d32565b1680600052600360205260ff604060002054161561066d57806000526003602052604060002060ff1981541690557f80c0b871b97b595b16a7741c1b06fed0c6f6f558639f18ccbce50724325dc40d600080a2005b60405162461bcd60e51b81526020600482015260166024820152754f70657261646f72206e6f206175746f72697a61646f60501b6044820152606490fd5b34610185576020366003190112610185576004356106cc6005548210611c3d565b600052600460205261073160406000206002810154600382015460ff6004840154166006840154600785015490600a86015492600b8701549461073f61071d60016107168b611a9f565b9a01611a9f565b6040519a8b9a610140808d528c0190611b45565b908a820360208c0152611b45565b604089019790975260608801521515608087015260a086015260c085015260ff8116151560e085015260081c6001600160a01b03166101008401526101208301520390f35b346101855760403660031901126101855760206107aa6107a2611a17565b600435611d97565b6040519015158152f35b3461018557602080600319360112610185576004356107d66005548210611c3d565b60005260048152600960406000200160405190818382549182815201908192600052846000209060005b8682821061085f57868661081682880383611a7d565b604051928392818401908285525180915260408401929160005b82811061083f57505050500390f35b83516001600160a01b031685528695509381019392810192600101610830565b83546001600160a01b031685529093019260019283019201610800565b34610185576000366003190112610185576001546040516001600160a01b039091168152602090f35b34610185576000366003190112610185576020600554604051908152f35b34610185576040366003190112610185576004356108df611a17565b6002546001600160a01b039190821633148015610ad2575b61090090611bdc565b61090d6005548410611c3d565b826000526020906004825260086040600020019281169283600052825260ff60406000205416610a955760405190828201906bffffffffffffffffffffffff199060601b16815242603483015260348252606082019167ffffffffffffffff91818410838511176104aa57836040528151902090610100810192848410908411176104aa5760039260405260018452608081016000815260a08201906000825260e060c08401936000855201938452886000526004875260086040600020018860005287526040600020955115159060ff61ff0088549251151560081b1692169061ffff191617178555516001850155516002840155519101558260005260048152600960406000200190815491680100000000000000008310156104aa5760018301808255831015610a7f5760005260002001816bffffffffffffffffffffffff60a01b8254161790557ff16ce2c2236e2c6e3df646f80d657bceef4cd7f3a240c47e82adfa17a5f47241600080a3005b634e487b7160e01b600052603260045260246000fd5b60405162461bcd60e51b8152600481018390526015602482015274566f74616e7465207961207265676973747261646f60581b6044820152606490fd5b503360009081526003602052604090205460ff166108f7565b34610185576000366003190112610185576020604051670de0b6b3a76400008152f35b34610185576020366003190112610185576001600160a01b03610b2f611a01565b166000526003602052602060ff604060002054166040519015158152f35b346101855760803660031901126101855760043567ffffffffffffffff811161018557610b7e903690600401611b85565b6024803567ffffffffffffffff811161018557610b9f903690600401611b85565b6002546001600160a01b031633148015611069575b610bbd90611bdc565b82511561102557805115610fd557426044351115610f81576044356064351115610f1f5760055491610bee83611c18565b600555826000526004602052604060002091845167ffffffffffffffff8111610f0a57610c1b8454611a43565b601f8111610ec4575b50806020601f8211600114610e5d57600091610e52575b508160011b916000199060031b1c19161783555b80519167ffffffffffffffff8311610e3e5750610c6f6001840154611a43565b601f8111610df3575b50916020949184938690601f8311600114610d5c579180610d4694927f52be7c4e77b4de76b7607d621492061fe13b58597e72dfb5e51ab8f6187ed1419694600092610d51575b50508160011b916000199060031b1c19161760018201555b6044356002820155606435600382015560048101805460ff191660011790556000600682018190556007820155600a81018054610100600160a81b0319163360081b610100600160a81b031617905542600b8201819055600c9091015560405186815291829187830190611b45565b0390a2604051908152f35b015190508980610cbf565b9060018401600052876000209160005b601f1985168110610dd9575092610d4694926001927f52be7c4e77b4de76b7607d621492061fe13b58597e72dfb5e51ab8f6187ed141979583601f19811610610dc0575b505050811b016001820155610cd7565b015160001960f88460031b161c19169055898080610db0565b818301518455889750600190930192918901918901610d6c565b600184016000526020600020601f840160051c81019160208510610e34575b601f0160051c01905b818110610e285750610c78565b60008155600101610e1b565b9091508190610e12565b634e487b7160e01b60009081526041600452fd5b905086015187610c3b565b91508460005260206000206000925b601f1983168410610eac576001935082601f19811610610e93575b5050811b018355610c4f565b88015160001960f88460031b161c191690558780610e87565b88810151825560209384019360019092019101610e6c565b846000526020600020601f830160051c810160208410610f03575b601f90920160051c01905b818110610ef75750610c24565b60008155600101610eea565b5080610edf565b82634e487b7160e01b60005260416004526000fd5b60405162461bcd60e51b8152602060048201526035818401527f4c6120686f72612064652066696e20646562652073657220706f73746572696f604482015274722061206c6120686f726120646520696e6963696f60581b6064820152608490fd5b60405162461bcd60e51b8152602060048201526027818401527f4c6120686f726120646520696e6963696f20646562652073657220656e20656c6044820152662066757475726f60c81b6064820152608490fd5b60405162461bcd60e51b8152602060048201526023818401527f4c61206465736372697063696f6e206e6f20707565646520657374617220766160448201526263696160e81b6064820152608490fd5b60405162461bcd60e51b815260206004820152601e818401527f456c20746974756c6f206e6f20707565646520657374617220766163696f00006044820152606490fd5b503360009081526003602052604090205460ff16610bb4565b346101855761109036611a2d565b9061109e6005548210611c3d565b80600052600460205260066040600020015482101561111f576000526004602052600560406000200190600052602052611107604060002060028101546111156110f360016110ec85611a9f565b9401611a9f565b604051948594606086526060860190611b45565b908482036020860152611b45565b9060408301520390f35b60405162461bcd60e51b815260206004820152601760248201527f43616e64696461746f206e6f20656e636f6e747261646f0000000000000000006044820152606490fd5b346101855760203660031901126101855760043560005260046020526111e5604060002061119181611a9f565b9061119e60018201611a9f565b600282015491600381015460ff6004830154166006830154600784015491600a850154936111f3600c600b880154970154976040519b8c9b8c6101608091528d0190611b45565b908b820360208d0152611b45565b60408a019890985260608901521515608088015260a087015260c086015260ff8116151560e086015260081c6001600160a01b03166101008501526101208401526101408301520390f35b3461018557602036600319011261018557611257611a01565b6002546001600160a01b0391906112719083163314611d32565b16801561130c5780600052600360205260ff604060002054166112ce578060005260036020526040600020600160ff198254161790557fac6fa858e9350a46cec16539926e0fde25b7629f84b5a72bffaae4df888ae86d600080a2005b60405162461bcd60e51b81526020600482015260166024820152754f70657261646f72207961206175746f72697a61646f60501b6044820152606490fd5b60405162461bcd60e51b8152602060048201526012602482015271446972656363696f6e20696e76616c69646160701b6044820152606490fd5b346101855761135436611a2d565b906002600054146117dd5760026000556113716005548210611c3d565b8060005260206004815260ff60046040600020015416156117a45781600052600481526002604060002001544210611769578160005260048152600360406000200154421161172f5781600052600481526008918260406000200133600052825260ff60406000205416156116f25780600052600482528260406000200133600052825260ff604060002054841c166116ad578060005260048252600660406000200154841015611673576001546040516370a0823160e01b81523360048201526001600160a01b039091169490938385602481895afa9485156115f357600095611644575b50670de0b6b3a76400008095106115ff5783600095966064604051809881936323b872dd60e01b83523360048401523060248401528b60448401525af19485156115f3577f2efa3c8729bb4709645a357fcbdacbae23c038445bdb417a51d8c1dcc68be465956114cf916000916115c6575b50611ce6565b826000526004845280604060002001336000528452604060002061010061ff00198254161790558260005260048452806040600020013360005284524260016040600020015582600052600484526040600020013360005283528060026040600020015581600052600483526005604060002001816000528352600260406000200161155b8154611c18565b9055816000526004835260076040600020016115778154611c18565b9055816000526004835242600c604060002001556040519081527fb4cfecf70861b7b150d8337780d34fb4cbc2114b5fb1fe51a5c5fca1849f7274833392a36040519283523392a26001600055005b6115e69150863d88116115ec575b6115de8183611a7d565b810190611cce565b886114c9565b503d6115d4565b6040513d6000823e3d90fd5b60405162461bcd60e51b815260048101859052601f60248201527f546f6b656e7320696e737566696369656e746573207061726120766f746172006044820152606490fd5b9094508381813d831161166c575b61165c8183611a7d565b8101031261018557519386611457565b503d611652565b60405162461bcd60e51b815260048101839052601260248201527143616e64696461746f20696e76616c69646f60701b6044820152606490fd5b60405162461bcd60e51b815260048101839052601b60248201527f596120766f746173746520656e206573746120656c656363696f6e00000000006044820152606490fd5b60405162461bcd60e51b8152600481018390526015602482015274566f74616e7465206e6f207265676973747261646f60581b6044820152606490fd5b6064906040519062461bcd60e51b825260048201526013602482015272456c656363696f6e2066696e616c697a61646160681b6044820152fd5b6064906040519062461bcd60e51b825260048201526014602482015273456c656363696f6e206e6f20696e69636961646160601b6044820152fd5b6064906040519062461bcd60e51b825260048201526012602482015271456c656363696f6e206e6f2061637469766160701b6044820152fd5b60405162461bcd60e51b815260206004820152601f60248201527f5265656e7472616e637947756172643a207265656e7472616e742063616c6c006044820152606490fd5b346101855760203660031901126101855760043561184b60018060a01b03600254163314611d32565b6118586005548210611c3d565b80600052600460205261187660ff600a604060002001541615611c82565b806000526004602052600460406000200160ff19908181541690556001600a6040600020019182541617905542600c604060002001557f63766cd591e04cb4e6efcfaaea14aad1fb0f36f02ce7c571b65b405c9dfebbcc600080a2005b34610185576040366003190112610185576118ec611a01565b6024359060018060a01b03809161190882600254163314611d32565b169182156119bc57801561197757604460209260015416936000604051958694859363a9059cbb60e01b8552600485015260248401525af180156115f357611957916000916119595750611ce6565b005b611971915060203d81116115ec576115de8183611a7d565b826114c9565b60405162461bcd60e51b815260206004820152601e60248201527f456c206d6f6e746f206465626520736572206d61796f722061206365726f00006044820152606490fd5b60405162461bcd60e51b815260206004820152601d60248201527f446972656363696f6e2064652064657374696e6f20696e76616c6964610000006044820152606490fd5b600435906001600160a01b038216820361018557565b602435906001600160a01b038216820361018557565b6040906003190112610185576004359060243590565b90600182811c92168015611a73575b6020831014611a5d57565b634e487b7160e01b600052602260045260246000fd5b91607f1691611a52565b90601f8019910116810190811067ffffffffffffffff8211176104aa57604052565b9060405191826000825492611ab384611a43565b908184526001948581169081600014611b225750600114611adf575b5050611add92500383611a7d565b565b9093915060005260209081600020936000915b818310611b0a575050611add93508201013880611acf565b85548884018501529485019487945091830191611af2565b915050611add94506020925060ff191682840152151560051b8201013880611acf565b919082519283825260005b848110611b71575050826000602080949584010152601f8019910116010190565b602081830181015184830182015201611b50565b81601f820112156101855780359067ffffffffffffffff82116104aa5760405192611bba601f8401601f191660200185611a7d565b8284526020838301011161018557816000926020809301838601378301015290565b15611be357565b60405162461bcd60e51b815260206004820152600d60248201526c4e6f206175746f72697a61646f60981b6044820152606490fd5b6000198114611c275760010190565b634e487b7160e01b600052601160045260246000fd5b15611c4457565b60405162461bcd60e51b8152602060048201526016602482015275456c656363696f6e206e6f20656e636f6e747261646160501b6044820152606490fd5b15611c8957565b60405162461bcd60e51b815260206004820152601960248201527f526573756c7461646f732079612066696e616c697a61646f73000000000000006044820152606490fd5b90816020910312610185575180151581036101855790565b15611ced57565b60405162461bcd60e51b815260206004820152601a60248201527f4572726f7220616c207472616e73666572697220746f6b656e730000000000006044820152606490fd5b15611d3957565b60405162461bcd60e51b815260206004820152603060248201527f536f6c6f20656c2061646d696e6973747261646f72207075656465207265616c60448201526f34bd30b91032b9ba309030b1b1b4b7b760811b6064820152608490fd5b600554811015611eb65760009181835260206004815260409160ff600484872001541615611ea757600283862001544210611ea757600383862001544211611ea7576008838620019360018060a01b0380921694858752835260ff848720541615611eae57855260048252600883862001848652825260ff8386205460081c16611ea7578190600154169360248451809681936370a0823160e01b835260048301525afa918215611e9e57508391611e64575b50670de0b6b3a7640000915010611e615750600190565b90565b905081813d8311611e97575b611e7a8183611a7d565b81010312611e9357670de0b6b3a7640000905138611e4a565b5080fd5b503d611e70565b513d85823e3d90fd5b5050505090565b505050505090565b505060009056fea264697066735822122040b2f9b3030b2531697bee1e37523e19720ef47663fc988823ddb2ae41011de264736f6c63430008110033","opcodes":"PUSH1 0x80 CALLVALUE PUSH2 0xE5 JUMPI PUSH1 0x1F PUSH2 0x1FF4 CODESIZE DUP2 SWAP1 SUB SWAP2 DUP3 ADD PUSH1 0x1F NOT AND DUP4 ADD SWAP2 PUSH1 0x1 PUSH1 0x1 PUSH1 0x40 SHL SUB DUP4 GT DUP5 DUP5 LT OR PUSH2 0xEA JUMPI DUP1 DUP5 SWAP3 PUSH1 0x20 SWAP5 PUSH1 0x40 MSTORE DUP4 CODECOPY DUP2 ADD SUB SLT PUSH2 0xE5 JUMPI MLOAD PUSH1 0x1 PUSH1 0x1 PUSH1 0xA0 SHL SUB DUP2 AND SWAP1 DUP2 SWAP1 SUB PUSH2 0xE5 JUMPI PUSH1 0x1 PUSH1 0x0 SSTORE DUP1 ISZERO PUSH2 0xA0 JUMPI PUSH1 0x1 DUP1 PUSH1 0xA0 SHL SUB NOT SWAP1 DUP2 PUSH1 0x1 SLOAD AND OR PUSH1 0x1 SSTORE CALLER SWAP1 PUSH1 0x2 SLOAD AND OR PUSH1 0x2 SSTORE CALLER PUSH1 0x0 MSTORE PUSH1 0x3 PUSH1 0x20 MSTORE PUSH1 0x40 PUSH1 0x0 KECCAK256 PUSH1 0x1 PUSH1 0xFF NOT DUP3 SLOAD AND OR SWAP1 SSTORE PUSH1 0x40 MLOAD PUSH2 0x1EF3 SWAP1 DUP2 PUSH2 0x101 DUP3 CODECOPY RETURN JUMPDEST PUSH1 0x40 MLOAD PUSH3 0x461BCD PUSH1 0xE5 SHL DUP2 MSTORE PUSH1 0x20 PUSH1 0x4 DUP3 ADD MSTORE PUSH1 0x1B PUSH1 0x24 DUP3 ADD MSTORE PUSH32 0x446972656363696F6E20646520746F6B656E20696E76616C6964610000000000 PUSH1 0x44 DUP3 ADD MSTORE PUSH1 0x64 SWAP1 REVERT JUMPDEST PUSH1 0x0 DUP1 REVERT JUMPDEST PUSH4 0x4E487B71 PUSH1 0xE0 SHL PUSH1 0x0 MSTORE PUSH1 0x41 PUSH1 0x4 MSTORE PUSH1 0x24 PUSH1 0x0 REVERT INVALID PUSH1 0x80 PUSH1 0x40 MSTORE PUSH1 0x4 CALLDATASIZE LT ISZERO PUSH2 0x12 JUMPI PUSH1 0x0 DUP1 REVERT JUMPDEST PUSH1 0x0 CALLDATALOAD PUSH1 0xE0 SHR DUP1 PUSH4 0x6B091F9 EQ PUSH2 0x18D3 JUMPI DUP1 PUSH4 0x1537052E EQ PUSH2 0x1822 JUMPI DUP1 PUSH4 0x181D989B EQ PUSH2 0xB0E JUMPI DUP1 PUSH4 0x2C0A3F89 EQ PUSH2 0x1346 JUMPI DUP1 PUSH4 0x404D2CF8 EQ PUSH2 0x123E JUMPI DUP1 PUSH4 0x5E6FEF01 EQ PUSH2 0x1164 JUMPI DUP1 PUSH4 0x73A12F5A EQ PUSH2 0x1082 JUMPI DUP1 PUSH4 0x7AD36E84 EQ PUSH2 0xB4D JUMPI DUP1 PUSH4 0x82D52C1E EQ PUSH2 0xB0E JUMPI DUP1 PUSH4 0x929504A1 EQ PUSH2 0xAEB JUMPI DUP1 PUSH4 0x94C790BB EQ PUSH2 0x8C3 JUMPI DUP1 PUSH4 0x997D2830 EQ PUSH2 0x8A5 JUMPI DUP1 PUSH4 0xB0340123 EQ PUSH2 0x87C JUMPI DUP1 PUSH4 0xC5326EBC EQ PUSH2 0x7B4 JUMPI DUP1 PUSH4 0xCDB2867B EQ PUSH2 0x784 JUMPI DUP1 PUSH4 0xCE99B5DF EQ PUSH2 0x6AB JUMPI DUP1 PUSH4 0xE3F8A79C EQ PUSH2 0x5E5 JUMPI DUP1 PUSH4 0xE6C62EFC EQ PUSH2 0x1B3 JUMPI DUP1 PUSH4 0xF851A440 EQ PUSH2 0x18A JUMPI PUSH4 0xFBC759A1 EQ PUSH2 0xF8 JUMPI PUSH1 0x0 DUP1 REVERT JUMPDEST CALLVALUE PUSH2 0x185 JUMPI PUSH1 0x40 CALLDATASIZE PUSH1 0x3 NOT ADD SLT PUSH2 0x185 JUMPI PUSH1 0x4 CALLDATALOAD PUSH2 0x114 PUSH2 0x1A17 JUMP JUMPDEST SWAP1 PUSH2 0x122 PUSH1 0x5 SLOAD DUP3 LT PUSH2 0x1C3D JUMP JUMPDEST PUSH1 0x0 MSTORE PUSH1 0x4 PUSH1 0x20 MSTORE PUSH1 0x8 PUSH1 0x40 PUSH1 0x0 KECCAK256 ADD SWAP1 PUSH1 0x1 DUP1 PUSH1 0xA0 SHL SUB AND PUSH1 0x0 MSTORE PUSH1 0x20 MSTORE PUSH1 0xA0 PUSH1 0x40 PUSH1 0x0 KECCAK256 DUP1 SLOAD SWAP1 PUSH1 0x1 DUP2 ADD SLOAD SWAP1 PUSH1 0x3 PUSH1 0x2 DUP3 ADD SLOAD SWAP2 ADD SLOAD SWAP2 PUSH1 0xFF PUSH1 0x40 MLOAD SWAP5 DUP2 DUP2 AND ISZERO ISZERO DUP7 MSTORE PUSH1 0x8 SHR AND ISZERO ISZERO PUSH1 0x20 DUP6 ADD MSTORE PUSH1 0x40 DUP5 ADD MSTORE PUSH1 0x60 DUP4 ADD MSTORE PUSH1 0x80 DUP3 ADD MSTORE RETURN JUMPDEST PUSH1 0x0 DUP1 REVERT JUMPDEST CALLVALUE PUSH2 0x185 JUMPI PUSH1 0x0 CALLDATASIZE PUSH1 0x3 NOT ADD SLT PUSH2 0x185 JUMPI PUSH1 0x2 SLOAD PUSH1 0x40 MLOAD PUSH1 0x1 PUSH1 0x1 PUSH1 0xA0 SHL SUB SWAP1 SWAP2 AND DUP2 MSTORE PUSH1 0x20 SWAP1 RETURN JUMPDEST CALLVALUE PUSH2 0x185 JUMPI PUSH1 0x60 CALLDATASIZE PUSH1 0x3 NOT ADD SLT PUSH2 0x185 JUMPI PUSH1 0x24 CALLDATALOAD PUSH8 0xFFFFFFFFFFFFFFFF DUP2 GT PUSH2 0x185 JUMPI PUSH2 0x1E4 SWAP1 CALLDATASIZE SWAP1 PUSH1 0x4 ADD PUSH2 0x1B85 JUMP JUMPDEST PUSH1 0x44 CALLDATALOAD PUSH8 0xFFFFFFFFFFFFFFFF DUP2 GT PUSH2 0x185 JUMPI PUSH2 0x204 SWAP1 CALLDATASIZE SWAP1 PUSH1 0x4 ADD PUSH2 0x1B85 JUMP JUMPDEST SWAP1 PUSH1 0x1 DUP1 PUSH1 0xA0 SHL SUB PUSH1 0x2 SLOAD AND CALLER EQ DUP1 ISZERO PUSH2 0x5CC JUMPI JUMPDEST PUSH2 0x222 SWAP1 PUSH2 0x1BDC JUMP JUMPDEST PUSH2 0x231 PUSH1 0x5 SLOAD PUSH1 0x4 CALLDATALOAD LT PUSH2 0x1C3D JUMP JUMPDEST PUSH1 0x4 CALLDATALOAD PUSH1 0x0 MSTORE PUSH1 0x4 PUSH1 0x20 MSTORE PUSH2 0x251 PUSH1 0xFF PUSH1 0xA PUSH1 0x40 PUSH1 0x0 KECCAK256 ADD SLOAD AND ISZERO PUSH2 0x1C82 JUMP JUMPDEST DUP1 MLOAD ISZERO PUSH2 0x587 JUMPI PUSH1 0x4 CALLDATALOAD PUSH1 0x0 MSTORE PUSH1 0x4 PUSH1 0x20 MSTORE PUSH1 0x40 PUSH1 0x0 KECCAK256 SWAP2 PUSH1 0x6 DUP4 ADD SWAP1 DUP2 SLOAD SWAP2 PUSH2 0x27A DUP4 PUSH2 0x1C18 JUMP JUMPDEST SWAP1 SSTORE PUSH1 0x40 MLOAD SWAP4 PUSH1 0x60 DUP6 ADD SWAP2 DUP6 DUP4 LT PUSH8 0xFFFFFFFFFFFFFFFF DUP5 GT OR PUSH2 0x4AA JUMPI PUSH1 0x5 SWAP3 PUSH1 0x40 MSTORE DUP5 DUP7 MSTORE PUSH1 0x20 DUP7 ADD MSTORE PUSH1 0x0 PUSH1 0x40 DUP7 ADD MSTORE DUP3 PUSH1 0x0 MSTORE ADD PUSH1 0x20 MSTORE PUSH1 0x40 PUSH1 0x0 KECCAK256 DUP4 MLOAD DUP1 MLOAD SWAP1 PUSH8 0xFFFFFFFFFFFFFFFF DUP3 GT PUSH2 0x4AA JUMPI DUP2 SWAP1 PUSH2 0x2DA DUP5 SLOAD PUSH2 0x1A43 JUMP JUMPDEST PUSH1 0x1F DUP2 GT PUSH2 0x537 JUMPI JUMPDEST POP PUSH1 0x20 SWAP1 PUSH1 0x1F DUP4 GT PUSH1 0x1 EQ PUSH2 0x4CB JUMPI PUSH1 0x0 SWAP3 PUSH2 0x4C0 JUMPI JUMPDEST POP POP DUP2 PUSH1 0x1 SHL SWAP2 PUSH1 0x0 NOT SWAP1 PUSH1 0x3 SHL SHR NOT AND OR DUP2 SSTORE JUMPDEST PUSH1 0x20 DUP5 ADD MLOAD DUP1 MLOAD SWAP1 PUSH8 0xFFFFFFFFFFFFFFFF DUP3 GT PUSH2 0x4AA JUMPI PUSH2 0x333 PUSH1 0x1 DUP5 ADD SLOAD PUSH2 0x1A43 JUMP JUMPDEST PUSH1 0x1F DUP2 GT PUSH2 0x45F JUMPI JUMPDEST POP PUSH1 0x20 SWAP1 PUSH1 0x1F DUP4 GT PUSH1 0x1 EQ PUSH2 0x3CA JUMPI SWAP6 DUP3 PUSH1 0x2 SWAP4 PUSH1 0x40 SWAP4 PUSH32 0xED8911B3DF733B7D5F75724158E54478EA12E30F49C9D31B5261879F5B76586F SWAP9 SWAP10 PUSH1 0x0 SWAP3 PUSH2 0x3BF JUMPI JUMPDEST POP POP DUP2 PUSH1 0x1 SHL SWAP2 PUSH1 0x0 NOT SWAP1 PUSH1 0x3 SHL SHR NOT AND OR PUSH1 0x1 DUP6 ADD SSTORE JUMPDEST ADD MLOAD SWAP2 ADD SSTORE PUSH1 0x40 MLOAD SWAP1 DUP2 MSTORE PUSH1 0x40 PUSH1 0x20 DUP3 ADD MSTORE DUP1 PUSH2 0x3BA PUSH1 0x4 CALLDATALOAD SWAP5 PUSH1 0x40 DUP4 ADD SWAP1 PUSH2 0x1B45 JUMP JUMPDEST SUB SWAP1 LOG2 STOP JUMPDEST ADD MLOAD SWAP1 POP DUP10 DUP1 PUSH2 0x37E JUMP JUMPDEST SWAP1 PUSH1 0x1F NOT DUP4 AND SWAP2 PUSH1 0x1 DUP6 ADD PUSH1 0x0 MSTORE PUSH1 0x20 PUSH1 0x0 KECCAK256 SWAP3 PUSH1 0x0 JUMPDEST DUP2 DUP2 LT PUSH2 0x447 JUMPI POP SWAP4 PUSH1 0x40 SWAP4 PUSH32 0xED8911B3DF733B7D5F75724158E54478EA12E30F49C9D31B5261879F5B76586F SWAP9 SWAP10 SWAP4 PUSH1 0x1 SWAP4 DUP4 PUSH1 0x2 SWAP9 LT PUSH2 0x42E JUMPI JUMPDEST POP POP POP DUP2 SHL ADD PUSH1 0x1 DUP6 ADD SSTORE PUSH2 0x396 JUMP JUMPDEST ADD MLOAD PUSH1 0x0 NOT PUSH1 0xF8 DUP5 PUSH1 0x3 SHL AND SHR NOT AND SWAP1 SSTORE DUP10 DUP1 DUP1 PUSH2 0x41E JUMP JUMPDEST SWAP3 SWAP4 PUSH1 0x20 PUSH1 0x1 DUP2 SWAP3 DUP8 DUP7 ADD MLOAD DUP2 SSTORE ADD SWAP6 ADD SWAP4 ADD PUSH2 0x3E1 JUMP JUMPDEST PUSH1 0x1 DUP5 ADD PUSH1 0x0 MSTORE PUSH1 0x20 PUSH1 0x0 KECCAK256 PUSH1 0x1F DUP5 ADD PUSH1 0x5 SHR DUP2 ADD SWAP2 PUSH1 0x20 DUP6 LT PUSH2 0x4A0 JUMPI JUMPDEST PUSH1 0x1F ADD PUSH1 0x5 SHR ADD SWAP1 JUMPDEST DUP2 DUP2 LT PUSH2 0x494 JUMPI POP PUSH2 0x33C JUMP JUMPDEST PUSH1 0x0 DUP2 SSTORE PUSH1 0x1 ADD PUSH2 0x487 JUMP JUMPDEST SWAP1 SWAP2 POP DUP2 SWAP1 PUSH2 0x47E JUMP JUMPDEST PUSH4 0x4E487B71 PUSH1 0xE0 SHL PUSH1 0x0 MSTORE PUSH1 0x41 PUSH1 0x4 MSTORE PUSH1 0x24 PUSH1 0x0 REVERT JUMPDEST ADD MLOAD SWAP1 POP DUP7 DUP1 PUSH2 0x2FA JUMP JUMPDEST SWAP3 POP DUP4 PUSH1 0x0 MSTORE PUSH1 0x20 PUSH1 0x0 KECCAK256 SWAP1 PUSH1 0x0 SWAP4 JUMPDEST PUSH1 0x1F NOT DUP5 AND DUP6 LT PUSH2 0x51C JUMPI PUSH1 0x1 SWAP5 POP DUP4 PUSH1 0x1F NOT DUP2 AND LT PUSH2 0x503 JUMPI JUMPDEST POP POP POP DUP2 SHL ADD DUP2 SSTORE PUSH2 0x30F JUMP JUMPDEST ADD MLOAD PUSH1 0x0 NOT PUSH1 0xF8 DUP5 PUSH1 0x3 SHL AND SHR NOT AND SWAP1 SSTORE DUP7 DUP1 DUP1 PUSH2 0x4F6 JUMP JUMPDEST DUP2 DUP2 ADD MLOAD DUP4 SSTORE PUSH1 0x20 SWAP5 DUP6 ADD SWAP5 PUSH1 0x1 SWAP1 SWAP4 ADD SWAP3 SWAP1 SWAP2 ADD SWAP1 PUSH2 0x4DB JUMP JUMPDEST SWAP1 SWAP2 POP DUP4 PUSH1 0x0 MSTORE PUSH1 0x20 PUSH1 0x0 KECCAK256 PUSH1 0x1F DUP5 ADD PUSH1 0x5 SHR DUP2 ADD PUSH1 0x20 DUP6 LT PUSH2 0x580 JUMPI JUMPDEST SWAP1 DUP5 SWAP4 SWAP3 SWAP2 JUMPDEST PUSH1 0x1F DUP4 ADD PUSH1 0x5 SHR DUP3 ADD DUP2 LT PUSH2 0x571 JUMPI POP POP PUSH2 0x2E3 JUMP JUMPDEST PUSH1 0x0 DUP2 SSTORE DUP6 SWAP5 POP PUSH1 0x1 ADD PUSH2 0x55B JUMP JUMPDEST POP DUP1 PUSH2 0x555 JUMP JUMPDEST PUSH1 0x40 MLOAD PUSH3 0x461BCD PUSH1 0xE5 SHL DUP2 MSTORE PUSH1 0x20 PUSH1 0x4 DUP3 ADD MSTORE PUSH1 0x1E PUSH1 0x24 DUP3 ADD MSTORE PUSH32 0x456C206E6F6D627265206E6F20707565646520657374617220766163696F0000 PUSH1 0x44 DUP3 ADD MSTORE PUSH1 0x64 SWAP1 REVERT JUMPDEST POP CALLER PUSH1 0x0 SWAP1 DUP2 MSTORE PUSH1 0x3 PUSH1 0x20 MSTORE PUSH1 0x40 SWAP1 KECCAK256 SLOAD PUSH1 0xFF AND PUSH2 0x219 JUMP JUMPDEST CALLVALUE PUSH2 0x185 JUMPI PUSH1 0x20 CALLDATASIZE PUSH1 0x3 NOT ADD SLT PUSH2 0x185 JUMPI PUSH2 0x5FE PUSH2 0x1A01 JUMP JUMPDEST PUSH1 0x2 SLOAD PUSH1 0x1 PUSH1 0x1 PUSH1 0xA0 SHL SUB SWAP2 SWAP1 PUSH2 0x618 SWAP1 DUP4 AND CALLER EQ PUSH2 0x1D32 JUMP JUMPDEST AND DUP1 PUSH1 0x0 MSTORE PUSH1 0x3 PUSH1 0x20 MSTORE PUSH1 0xFF PUSH1 0x40 PUSH1 0x0 KECCAK256 SLOAD AND ISZERO PUSH2 0x66D JUMPI DUP1 PUSH1 0x0 MSTORE PUSH1 0x3 PUSH1 0x20 MSTORE PUSH1 0x40 PUSH1 0x0 KECCAK256 PUSH1 0xFF NOT DUP2 SLOAD AND SWAP1 SSTORE PUSH32 0x80C0B871B97B595B16A7741C1B06FED0C6F6F558639F18CCBCE50724325DC40D PUSH1 0x0 DUP1 LOG2 STOP JUMPDEST PUSH1 0x40 MLOAD PUSH3 0x461BCD PUSH1 0xE5 SHL DUP2 MSTORE PUSH1 0x20 PUSH1 0x4 DUP3 ADD MSTORE PUSH1 0x16 PUSH1 0x24 DUP3 ADD MSTORE PUSH22 0x4F70657261646F72206E6F206175746F72697A61646F PUSH1 0x50 SHL PUSH1 0x44 DUP3 ADD MSTORE PUSH1 0x64 SWAP1 REVERT JUMPDEST CALLVALUE PUSH2 0x185 JUMPI PUSH1 0x20 CALLDATASIZE PUSH1 0x3 NOT ADD SLT PUSH2 0x185 JUMPI PUSH1 0x4 CALLDATALOAD PUSH2 0x6CC PUSH1 0x5 SLOAD DUP3 LT PUSH2 0x1C3D JUMP JUMPDEST PUSH1 0x0 MSTORE PUSH1 0x4 PUSH1 0x20 MSTORE PUSH2 0x731 PUSH1 0x40 PUSH1 0x0 KECCAK256 PUSH1 0x2 DUP2 ADD SLOAD PUSH1 0x3 DUP3 ADD SLOAD PUSH1 0xFF PUSH1 0x4 DUP5 ADD SLOAD AND PUSH1 0x6 DUP5 ADD SLOAD PUSH1 0x7 DUP6 ADD SLOAD SWAP1 PUSH1 0xA DUP7 ADD SLOAD SWAP3 PUSH1 0xB DUP8 ADD SLOAD SWAP5 PUSH2 0x73F PUSH2 0x71D PUSH1 0x1 PUSH2 0x716 DUP12 PUSH2 0x1A9F JUMP JUMPDEST SWAP11 ADD PUSH2 0x1A9F JUMP JUMPDEST PUSH1 0x40 MLOAD SWAP11 DUP12 SWAP11 PUSH2 0x140 DUP1 DUP14 MSTORE DUP13 ADD SWAP1 PUSH2 0x1B45 JUMP JUMPDEST SWAP1 DUP11 DUP3 SUB PUSH1 0x20 DUP13 ADD MSTORE PUSH2 0x1B45 JUMP JUMPDEST PUSH1 0x40 DUP10 ADD SWAP8 SWAP1 SWAP8 MSTORE PUSH1 0x60 DUP9 ADD MSTORE ISZERO ISZERO PUSH1 0x80 DUP8 ADD MSTORE PUSH1 0xA0 DUP7 ADD MSTORE PUSH1 0xC0 DUP6 ADD MSTORE PUSH1 0xFF DUP2 AND ISZERO ISZERO PUSH1 0xE0 DUP6 ADD MSTORE PUSH1 0x8 SHR PUSH1 0x1 PUSH1 0x1 PUSH1 0xA0 SHL SUB AND PUSH2 0x100 DUP5 ADD MSTORE PUSH2 0x120 DUP4 ADD MSTORE SUB SWAP1 RETURN JUMPDEST CALLVALUE PUSH2 0x185 JUMPI PUSH1 0x40 CALLDATASIZE PUSH1 0x3 NOT ADD SLT PUSH2 0x185 JUMPI PUSH1 0x20 PUSH2 0x7AA PUSH2 0x7A2 PUSH2 0x1A17 JUMP JUMPDEST PUSH1 0x4 CALLDATALOAD PUSH2 0x1D97 JUMP JUMPDEST PUSH1 0x40 MLOAD SWAP1 ISZERO ISZERO DUP2 MSTORE RETURN JUMPDEST CALLVALUE PUSH2 0x185 JUMPI PUSH1 0x20 DUP1 PUSH1 0x3 NOT CALLDATASIZE ADD SLT PUSH2 0x185 JUMPI PUSH1 0x4 CALLDATALOAD PUSH2 0x7D6 PUSH1 0x5 SLOAD DUP3 LT PUSH2 0x1C3D JUMP JUMPDEST PUSH1 0x0 MSTORE PUSH1 0x4 DUP2 MSTORE PUSH1 0x9 PUSH1 0x40 PUSH1 0x0 KECCAK256 ADD PUSH1 0x40 MLOAD SWAP1 DUP2 DUP4 DUP3 SLOAD SWAP2 DUP3 DUP2 MSTORE ADD SWAP1 DUP2 SWAP3 PUSH1 0x0 MSTORE DUP5 PUSH1 0x0 KECCAK256 SWAP1 PUSH1 0x0 JUMPDEST DUP7 DUP3 DUP3 LT PUSH2 0x85F JUMPI DUP7 DUP7 PUSH2 0x816 DUP3 DUP9 SUB DUP4 PUSH2 0x1A7D JUMP JUMPDEST PUSH1 0x40 MLOAD SWAP3 DUP4 SWAP3 DUP2 DUP5 ADD SWAP1 DUP3 DUP6 MSTORE MLOAD DUP1 SWAP2 MSTORE PUSH1 0x40 DUP5 ADD SWAP3 SWAP2 PUSH1 0x0 JUMPDEST DUP3 DUP2 LT PUSH2 0x83F JUMPI POP POP POP POP SUB SWAP1 RETURN JUMPDEST DUP4 MLOAD PUSH1 0x1 PUSH1 0x1 PUSH1 0xA0 SHL SUB AND DUP6 MSTORE DUP7 SWAP6 POP SWAP4 DUP2 ADD SWAP4 SWAP3 DUP2 ADD SWAP3 PUSH1 0x1 ADD PUSH2 0x830 JUMP JUMPDEST DUP4 SLOAD PUSH1 0x1 PUSH1 0x1 PUSH1 0xA0 SHL SUB AND DUP6 MSTORE SWAP1 SWAP4 ADD SWAP3 PUSH1 0x1 SWAP3 DUP4 ADD SWAP3 ADD PUSH2 0x800 JUMP JUMPDEST CALLVALUE PUSH2 0x185 JUMPI PUSH1 0x0 CALLDATASIZE PUSH1 0x3 NOT ADD SLT PUSH2 0x185 JUMPI PUSH1 0x1 SLOAD PUSH1 0x40 MLOAD PUSH1 0x1 PUSH1 0x1 PUSH1 0xA0 SHL SUB SWAP1 SWAP2 AND DUP2 MSTORE PUSH1 0x20 SWAP1 RETURN JUMPDEST CALLVALUE PUSH2 0x185 JUMPI PUSH1 0x0 CALLDATASIZE PUSH1 0x3 NOT ADD SLT PUSH2 0x185 JUMPI PUSH1 0x20 PUSH1 0x5 SLOAD PUSH1 0x40 MLOAD SWAP1 DUP2 MSTORE RETURN JUMPDEST CALLVALUE PUSH2 0x185 JUMPI PUSH1 0x40 CALLDATASIZE PUSH1 0x3 NOT ADD SLT PUSH2 0x185 JUMPI PUSH1 0x4 CALLDATALOAD PUSH2 0x8DF PUSH2 0x1A17 JUMP JUMPDEST PUSH1 0x2 SLOAD PUSH1 0x1 PUSH1 0x1 PUSH1 0xA0 SHL SUB SWAP2 SWAP1 DUP3 AND CALLER EQ DUP1 ISZERO PUSH2 0xAD2 JUMPI JUMPDEST PUSH2 0x900 SWAP1 PUSH2 0x1BDC JUMP JUMPDEST PUSH2 0x90D PUSH1 0x5 SLOAD DUP5 LT PUSH2 0x1C3D JUMP JUMPDEST DUP3 PUSH1 0x0 MSTORE PUSH1 0x20 SWAP1 PUSH1 0x4 DUP3 MSTORE PUSH1 0x8 PUSH1 0x40 PUSH1 0x0 KECCAK256 ADD SWAP3 DUP2 AND SWAP3 DUP4 PUSH1 0x0 MSTORE DUP3 MSTORE PUSH1 0xFF PUSH1 0x40 PUSH1 0x0 KECCAK256 SLOAD AND PUSH2 0xA95 JUMPI PUSH1 0x40 MLOAD SWAP1 DUP3 DUP3 ADD SWAP1 PUSH12 0xFFFFFFFFFFFFFFFFFFFFFFFF NOT SWAP1 PUSH1 0x60 SHL AND DUP2 MSTORE TIMESTAMP PUSH1 0x34 DUP4 ADD MSTORE PUSH1 0x34 DUP3 MSTORE PUSH1 0x60 DUP3 ADD SWAP2 PUSH8 0xFFFFFFFFFFFFFFFF SWAP2 DUP2 DUP5 LT DUP4 DUP6 GT OR PUSH2 0x4AA JUMPI DUP4 PUSH1 0x40 MSTORE DUP2 MLOAD SWAP1 KECCAK256 SWAP1 PUSH2 0x100 DUP2 ADD SWAP3 DUP5 DUP5 LT SWAP1 DUP5 GT OR PUSH2 0x4AA JUMPI PUSH1 0x3 SWAP3 PUSH1 0x40 MSTORE PUSH1 0x1 DUP5 MSTORE PUSH1 0x80 DUP2 ADD PUSH1 0x0 DUP2 MSTORE PUSH1 0xA0 DUP3 ADD SWAP1 PUSH1 0x0 DUP3 MSTORE PUSH1 0xE0 PUSH1 0xC0 DUP5 ADD SWAP4 PUSH1 0x0 DUP6 MSTORE ADD SWAP4 DUP5 MSTORE DUP9 PUSH1 0x0 MSTORE PUSH1 0x4 DUP8 MSTORE PUSH1 0x8 PUSH1 0x40 PUSH1 0x0 KECCAK256 ADD DUP9 PUSH1 0x0 MSTORE DUP8 MSTORE PUSH1 0x40 PUSH1 0x0 KECCAK256 SWAP6 MLOAD ISZERO ISZERO SWAP1 PUSH1 0xFF PUSH2 0xFF00 DUP9 SLOAD SWAP3 MLOAD ISZERO ISZERO PUSH1 0x8 SHL AND SWAP3 AND SWAP1 PUSH2 0xFFFF NOT AND OR OR DUP6 SSTORE MLOAD PUSH1 0x1 DUP6 ADD SSTORE MLOAD PUSH1 0x2 DUP5 ADD SSTORE MLOAD SWAP2 ADD SSTORE DUP3 PUSH1 0x0 MSTORE PUSH1 0x4 DUP2 MSTORE PUSH1 0x9 PUSH1 0x40 PUSH1 0x0 KECCAK256 ADD SWAP1 DUP2 SLOAD SWAP2 PUSH9 0x10000000000000000 DUP4 LT ISZERO PUSH2 0x4AA JUMPI PUSH1 0x1 DUP4 ADD DUP1 DUP3 SSTORE DUP4 LT ISZERO PUSH2 0xA7F JUMPI PUSH1 0x0 MSTORE PUSH1 0x0 KECCAK256 ADD DUP2 PUSH12 0xFFFFFFFFFFFFFFFFFFFFFFFF PUSH1 0xA0 SHL DUP3 SLOAD AND OR SWAP1 SSTORE PUSH32 0xF16CE2C2236E2C6E3DF646F80D657BCEEF4CD7F3A240C47E82ADFA17A5F47241 PUSH1 0x0 DUP1 LOG3 STOP JUMPDEST PUSH4 0x4E487B71 PUSH1 0xE0 SHL PUSH1 0x0 MSTORE PUSH1 0x32 PUSH1 0x4 MSTORE PUSH1 0x24 PUSH1 0x0 REVERT JUMPDEST PUSH1 0x40 MLOAD PUSH3 0x461BCD PUSH1 0xE5 SHL DUP2 MSTORE PUSH1 0x4 DUP2 ADD DUP4 SWAP1 MSTORE PUSH1 0x15 PUSH1 0x24 DUP3 ADD MSTORE PUSH21 0x566F74616E7465207961207265676973747261646F PUSH1 0x58 SHL PUSH1 0x44 DUP3 ADD MSTORE PUSH1 0x64 SWAP1 REVERT JUMPDEST POP CALLER PUSH1 0x0 SWAP1 DUP2 MSTORE PUSH1 0x3 PUSH1 0x20 MSTORE PUSH1 0x40 SWAP1 KECCAK256 SLOAD PUSH1 0xFF AND PUSH2 0x8F7 JUMP JUMPDEST CALLVALUE PUSH2 0x185 JUMPI PUSH1 0x0 CALLDATASIZE PUSH1 0x3 NOT ADD SLT PUSH2 0x185 JUMPI PUSH1 0x20 PUSH1 0x40 MLOAD PUSH8 0xDE0B6B3A7640000 DUP2 MSTORE RETURN JUMPDEST CALLVALUE PUSH2 0x185 JUMPI PUSH1 0x20 CALLDATASIZE PUSH1 0x3 NOT ADD SLT PUSH2 0x185 JUMPI PUSH1 0x1 PUSH1 0x1 PUSH1 0xA0 SHL SUB PUSH2 0xB2F PUSH2 0x1A01 JUMP JUMPDEST AND PUSH1 0x0 MSTORE PUSH1 0x3 PUSH1 0x20 MSTORE PUSH1 0x20 PUSH1 0xFF PUSH1 0x40 PUSH1 0x0 KECCAK256 SLOAD AND PUSH1 0x40 MLOAD SWAP1 ISZERO ISZERO DUP2 MSTORE RETURN JUMPDEST CALLVALUE PUSH2 0x185 JUMPI PUSH1 0x80 CALLDATASIZE PUSH1 0x3 NOT ADD SLT PUSH2 0x185 JUMPI PUSH1 0x4 CALLDATALOAD PUSH8 0xFFFFFFFFFFFFFFFF DUP2 GT PUSH2 0x185 JUMPI PUSH2 0xB7E SWAP1 CALLDATASIZE SWAP1 PUSH1 0x4 ADD PUSH2 0x1B85 JUMP JUMPDEST PUSH1 0x24 DUP1 CALLDATALOAD PUSH8 0xFFFFFFFFFFFFFFFF DUP2 GT PUSH2 0x185 JUMPI PUSH2 0xB9F SWAP1 CALLDATASIZE SWAP1 PUSH1 0x4 ADD PUSH2 0x1B85 JUMP JUMPDEST PUSH1 0x2 SLOAD PUSH1 0x1 PUSH1 0x1 PUSH1 0xA0 SHL SUB AND CALLER EQ DUP1 ISZERO PUSH2 0x1069 JUMPI JUMPDEST PUSH2 0xBBD SWAP1 PUSH2 0x1BDC JUMP JUMPDEST DUP3 MLOAD ISZERO PUSH2 0x1025 JUMPI DUP1 MLOAD ISZERO PUSH2 0xFD5 JUMPI TIMESTAMP PUSH1 0x44 CALLDATALOAD GT ISZERO PUSH2 0xF81 JUMPI PUSH1 0x44 CALLDATALOAD PUSH1 0x64 CALLDATALOAD GT ISZERO PUSH2 0xF1F JUMPI PUSH1 0x5 SLOAD SWAP2 PUSH2 0xBEE DUP4 PUSH2 0x1C18 JUMP JUMPDEST PUSH1 0x5 SSTORE DUP3 PUSH1 0x0 MSTORE PUSH1 0x4 PUSH1 0x20 MSTORE PUSH1 0x40 PUSH1 0x0 KECCAK256 SWAP2 DUP5 MLOAD PUSH8 0xFFFFFFFFFFFFFFFF DUP2 GT PUSH2 0xF0A JUMPI PUSH2 0xC1B DUP5 SLOAD PUSH2 0x1A43 JUMP JUMPDEST PUSH1 0x1F DUP2 GT PUSH2 0xEC4 JUMPI JUMPDEST POP DUP1 PUSH1 0x20 PUSH1 0x1F DUP3 GT PUSH1 0x1 EQ PUSH2 0xE5D JUMPI PUSH1 0x0 SWAP2 PUSH2 0xE52 JUMPI JUMPDEST POP DUP2 PUSH1 0x1 SHL SWAP2 PUSH1 0x0 NOT SWAP1 PUSH1 0x3 SHL SHR NOT AND OR DUP4 SSTORE JUMPDEST DUP1 MLOAD SWAP2 PUSH8 0xFFFFFFFFFFFFFFFF DUP4 GT PUSH2 0xE3E JUMPI POP PUSH2 0xC6F PUSH1 0x1 DUP5 ADD SLOAD PUSH2 0x1A43 JUMP JUMPDEST PUSH1 0x1F DUP2 GT PUSH2 0xDF3 JUMPI JUMPDEST POP SWAP2 PUSH1 0x20 SWAP5 SWAP2 DUP5 SWAP4 DUP7 SWAP1 PUSH1 0x1F DUP4 GT PUSH1 0x1 EQ PUSH2 0xD5C JUMPI SWAP2 DUP1 PUSH2 0xD46 SWAP5 SWAP3 PUSH32 0x52BE7C4E77B4DE76B7607D621492061FE13B58597E72DFB5E51AB8F6187ED141 SWAP7 SWAP5 PUSH1 0x0 SWAP3 PUSH2 0xD51 JUMPI JUMPDEST POP POP DUP2 PUSH1 0x1 SHL SWAP2 PUSH1 0x0 NOT SWAP1 PUSH1 0x3 SHL SHR NOT AND OR PUSH1 0x1 DUP3 ADD SSTORE JUMPDEST PUSH1 0x44 CALLDATALOAD PUSH1 0x2 DUP3 ADD SSTORE PUSH1 0x64 CALLDATALOAD PUSH1 0x3 DUP3 ADD SSTORE PUSH1 0x4 DUP2 ADD DUP1 SLOAD PUSH1 0xFF NOT AND PUSH1 0x1 OR SWAP1 SSTORE PUSH1 0x0 PUSH1 0x6 DUP3 ADD DUP2 SWAP1 SSTORE PUSH1 0x7 DUP3 ADD SSTORE PUSH1 0xA DUP2 ADD DUP1 SLOAD PUSH2 0x100 PUSH1 0x1 PUSH1 0xA8 SHL SUB NOT AND CALLER PUSH1 0x8 SHL PUSH2 0x100 PUSH1 0x1 PUSH1 0xA8 SHL SUB AND OR SWAP1 SSTORE TIMESTAMP PUSH1 0xB DUP3 ADD DUP2 SWAP1 SSTORE PUSH1 0xC SWAP1 SWAP2 ADD SSTORE PUSH1 0x40 MLOAD DUP7 DUP2 MSTORE SWAP2 DUP3 SWAP2 DUP8 DUP4 ADD SWAP1 PUSH2 0x1B45 JUMP JUMPDEST SUB SWAP1 LOG2 PUSH1 0x40 MLOAD SWAP1 DUP2 MSTORE RETURN JUMPDEST ADD MLOAD SWAP1 POP DUP10 DUP1 PUSH2 0xCBF JUMP JUMPDEST SWAP1 PUSH1 0x1 DUP5 ADD PUSH1 0x0 MSTORE DUP8 PUSH1 0x0 KECCAK256 SWAP2 PUSH1 0x0 JUMPDEST PUSH1 0x1F NOT DUP6 AND DUP2 LT PUSH2 0xDD9 JUMPI POP SWAP3 PUSH2 0xD46 SWAP5 SWAP3 PUSH1 0x1 SWAP3 PUSH32 0x52BE7C4E77B4DE76B7607D621492061FE13B58597E72DFB5E51AB8F6187ED141 SWAP8 SWAP6 DUP4 PUSH1 0x1F NOT DUP2 AND LT PUSH2 0xDC0 JUMPI JUMPDEST POP POP POP DUP2 SHL ADD PUSH1 0x1 DUP3 ADD SSTORE PUSH2 0xCD7 JUMP JUMPDEST ADD MLOAD PUSH1 0x0 NOT PUSH1 0xF8 DUP5 PUSH1 0x3 SHL AND SHR NOT AND SWAP1 SSTORE DUP10 DUP1 DUP1 PUSH2 0xDB0 JUMP JUMPDEST DUP2 DUP4 ADD MLOAD DUP5 SSTORE DUP9 SWAP8 POP PUSH1 0x1 SWAP1 SWAP4 ADD SWAP3 SWAP2 DUP10 ADD SWAP2 DUP10 ADD PUSH2 0xD6C JUMP JUMPDEST PUSH1 0x1 DUP5 ADD PUSH1 0x0 MSTORE PUSH1 0x20 PUSH1 0x0 KECCAK256 PUSH1 0x1F DUP5 ADD PUSH1 0x5 SHR DUP2 ADD SWAP2 PUSH1 0x20 DUP6 LT PUSH2 0xE34 JUMPI JUMPDEST PUSH1 0x1F ADD PUSH1 0x5 SHR ADD SWAP1 JUMPDEST DUP2 DUP2 LT PUSH2 0xE28 JUMPI POP PUSH2 0xC78 JUMP JUMPDEST PUSH1 0x0 DUP2 SSTORE PUSH1 0x1 ADD PUSH2 0xE1B JUMP JUMPDEST SWAP1 SWAP2 POP DUP2 SWAP1 PUSH2 0xE12 JUMP JUMPDEST PUSH4 0x4E487B71 PUSH1 0xE0 SHL PUSH1 0x0 SWAP1 DUP2 MSTORE PUSH1 0x41 PUSH1 0x4 MSTORE REVERT JUMPDEST SWAP1 POP DUP7 ADD MLOAD DUP8 PUSH2 0xC3B JUMP JUMPDEST SWAP2 POP DUP5 PUSH1 0x0 MSTORE PUSH1 0x20 PUSH1 0x0 KECCAK256 PUSH1 0x0 SWAP3 JUMPDEST PUSH1 0x1F NOT DUP4 AND DUP5 LT PUSH2 0xEAC JUMPI PUSH1 0x1 SWAP4 POP DUP3 PUSH1 0x1F NOT DUP2 AND LT PUSH2 0xE93 JUMPI JUMPDEST POP POP DUP2 SHL ADD DUP4 SSTORE PUSH2 0xC4F JUMP JUMPDEST DUP9 ADD MLOAD PUSH1 0x0 NOT PUSH1 0xF8 DUP5 PUSH1 0x3 SHL AND SHR NOT AND SWAP1 SSTORE DUP8 DUP1 PUSH2 0xE87 JUMP JUMPDEST DUP9 DUP2 ADD MLOAD DUP3 SSTORE PUSH1 0x20 SWAP4 DUP5 ADD SWAP4 PUSH1 0x1 SWAP1 SWAP3 ADD SWAP2 ADD PUSH2 0xE6C JUMP JUMPDEST DUP5 PUSH1 0x0 MSTORE PUSH1 0x20 PUSH1 0x0 KECCAK256 PUSH1 0x1F DUP4 ADD PUSH1 0x5 SHR DUP2 ADD PUSH1 0x20 DUP5 LT PUSH2 0xF03 JUMPI JUMPDEST PUSH1 0x1F SWAP1 SWAP3 ADD PUSH1 0x5 SHR ADD SWAP1 JUMPDEST DUP2 DUP2 LT PUSH2 0xEF7 JUMPI POP PUSH2 0xC24 JUMP JUMPDEST PUSH1 0x0 DUP2 SSTORE PUSH1 0x1 ADD PUSH2 0xEEA JUMP JUMPDEST POP DUP1 PUSH2 0xEDF JUMP JUMPDEST DUP3 PUSH4 0x4E487B71 PUSH1 0xE0 SHL PUSH1 0x0 MSTORE PUSH1 0x41 PUSH1 0x4 MSTORE PUSH1 0x0 REVERT JUMPDEST PUSH1 0x40 MLOAD PUSH3 0x461BCD PUSH1 0xE5 SHL DUP2 MSTORE PUSH1 0x20 PUSH1 0x4 DUP3 ADD MSTORE PUSH1 0x35 DUP2 DUP5 ADD MSTORE PUSH32 0x4C6120686F72612064652066696E20646562652073657220706F73746572696F PUSH1 0x44 DUP3 ADD MSTORE PUSH21 0x722061206C6120686F726120646520696E6963696F PUSH1 0x58 SHL PUSH1 0x64 DUP3 ADD MSTORE PUSH1 0x84 SWAP1 REVERT JUMPDEST PUSH1 0x40 MLOAD PUSH3 0x461BCD PUSH1 0xE5 SHL DUP2 MSTORE PUSH1 0x20 PUSH1 0x4 DUP3 ADD MSTORE PUSH1 0x27 DUP2 DUP5 ADD MSTORE PUSH32 0x4C6120686F726120646520696E6963696F20646562652073657220656E20656C PUSH1 0x44 DUP3 ADD MSTORE PUSH7 0x2066757475726F PUSH1 0xC8 SHL PUSH1 0x64 DUP3 ADD MSTORE PUSH1 0x84 SWAP1 REVERT JUMPDEST PUSH1 0x40 MLOAD PUSH3 0x461BCD PUSH1 0xE5 SHL DUP2 MSTORE PUSH1 0x20 PUSH1 0x4 DUP3 ADD MSTORE PUSH1 0x23 DUP2 DUP5 ADD MSTORE PUSH32 0x4C61206465736372697063696F6E206E6F207075656465206573746172207661 PUSH1 0x44 DUP3 ADD MSTORE PUSH3 0x636961 PUSH1 0xE8 SHL PUSH1 0x64 DUP3 ADD MSTORE PUSH1 0x84 SWAP1 REVERT JUMPDEST PUSH1 0x40 MLOAD PUSH3 0x461BCD PUSH1 0xE5 SHL DUP2 MSTORE PUSH1 0x20 PUSH1 0x4 DUP3 ADD MSTORE PUSH1 0x1E DUP2 DUP5 ADD MSTORE PUSH32 0x456C20746974756C6F206E6F20707565646520657374617220766163696F0000 PUSH1 0x44 DUP3 ADD MSTORE PUSH1 0x64 SWAP1 REVERT JUMPDEST POP CALLER PUSH1 0x0 SWAP1 DUP2 MSTORE PUSH1 0x3 PUSH1 0x20 MSTORE PUSH1 0x40 SWAP1 KECCAK256 SLOAD PUSH1 0xFF AND PUSH2 0xBB4 JUMP JUMPDEST CALLVALUE PUSH2 0x185 JUMPI PUSH2 0x1090 CALLDATASIZE PUSH2 0x1A2D JUMP JUMPDEST SWAP1 PUSH2 0x109E PUSH1 0x5 SLOAD DUP3 LT PUSH2 0x1C3D JUMP JUMPDEST DUP1 PUSH1 0x0 MSTORE PUSH1 0x4 PUSH1 0x20 MSTORE PUSH1 0x6 PUSH1 0x40 PUSH1 0x0 KECCAK256 ADD SLOAD DUP3 LT ISZERO PUSH2 0x111F JUMPI PUSH1 0x0 MSTORE PUSH1 0x4 PUSH1 0x20 MSTORE PUSH1 0x5 PUSH1 0x40 PUSH1 0x0 KECCAK256 ADD SWAP1 PUSH1 0x0 MSTORE PUSH1 0x20 MSTORE PUSH2 0x1107 PUSH1 0x40 PUSH1 0x0 KECCAK256 PUSH1 0x2 DUP2 ADD SLOAD PUSH2 0x1115 PUSH2 0x10F3 PUSH1 0x1 PUSH2 0x10EC DUP6 PUSH2 0x1A9F JUMP JUMPDEST SWAP5 ADD PUSH2 0x1A9F JUMP JUMPDEST PUSH1 0x40 MLOAD SWAP5 DUP6 SWAP5 PUSH1 0x60 DUP7 MSTORE PUSH1 0x60 DUP7 ADD SWAP1 PUSH2 0x1B45 JUMP JUMPDEST SWAP1 DUP5 DUP3 SUB PUSH1 0x20 DUP7 ADD MSTORE PUSH2 0x1B45 JUMP JUMPDEST SWAP1 PUSH1 0x40 DUP4 ADD MSTORE SUB SWAP1 RETURN JUMPDEST PUSH1 0x40 MLOAD PUSH3 0x461BCD PUSH1 0xE5 SHL DUP2 MSTORE PUSH1 0x20 PUSH1 0x4 DUP3 ADD MSTORE PUSH1 0x17 PUSH1 0x24 DUP3 ADD MSTORE PUSH32 0x43616E64696461746F206E6F20656E636F6E747261646F000000000000000000 PUSH1 0x44 DUP3 ADD MSTORE PUSH1 0x64 SWAP1 REVERT JUMPDEST CALLVALUE PUSH2 0x185 JUMPI PUSH1 0x20 CALLDATASIZE PUSH1 0x3 NOT ADD SLT PUSH2 0x185 JUMPI PUSH1 0x4 CALLDATALOAD PUSH1 0x0 MSTORE PUSH1 0x4 PUSH1 0x20 MSTORE PUSH2 0x11E5 PUSH1 0x40 PUSH1 0x0 KECCAK256 PUSH2 0x1191 DUP2 PUSH2 0x1A9F JUMP JUMPDEST SWAP1 PUSH2 0x119E PUSH1 0x1 DUP3 ADD PUSH2 0x1A9F JUMP JUMPDEST PUSH1 0x2 DUP3 ADD SLOAD SWAP2 PUSH1 0x3 DUP2 ADD SLOAD PUSH1 0xFF PUSH1 0x4 DUP4 ADD SLOAD AND PUSH1 0x6 DUP4 ADD SLOAD PUSH1 0x7 DUP5 ADD SLOAD SWAP2 PUSH1 0xA DUP6 ADD SLOAD SWAP4 PUSH2 0x11F3 PUSH1 0xC PUSH1 0xB DUP9 ADD SLOAD SWAP8 ADD SLOAD SWAP8 PUSH1 0x40 MLOAD SWAP12 DUP13 SWAP12 DUP13 PUSH2 0x160 DUP1 SWAP2 MSTORE DUP14 ADD SWAP1 PUSH2 0x1B45 JUMP JUMPDEST SWAP1 DUP12 DUP3 SUB PUSH1 0x20 DUP14 ADD MSTORE PUSH2 0x1B45 JUMP JUMPDEST PUSH1 0x40 DUP11 ADD SWAP9 SWAP1 SWAP9 MSTORE PUSH1 0x60 DUP10 ADD MSTORE ISZERO ISZERO PUSH1 0x80 DUP9 ADD MSTORE PUSH1 0xA0 DUP8 ADD MSTORE PUSH1 0xC0 DUP7 ADD MSTORE PUSH1 0xFF DUP2 AND ISZERO ISZERO PUSH1 0xE0 DUP7 ADD MSTORE PUSH1 0x8 SHR PUSH1 0x1 PUSH1 0x1 PUSH1 0xA0 SHL SUB AND PUSH2 0x100 DUP6 ADD MSTORE PUSH2 0x120 DUP5 ADD MSTORE PUSH2 0x140 DUP4 ADD MSTORE SUB SWAP1 RETURN JUMPDEST CALLVALUE PUSH2 0x185 JUMPI PUSH1 0x20 CALLDATASIZE PUSH1 0x3 NOT ADD SLT PUSH2 0x185 JUMPI PUSH2 0x1257 PUSH2 0x1A01 JUMP JUMPDEST PUSH1 0x2 SLOAD PUSH1 0x1 PUSH1 0x1 PUSH1 0xA0 SHL SUB SWAP2 SWAP1 PUSH2 0x1271 SWAP1 DUP4 AND CALLER EQ PUSH2 0x1D32 JUMP JUMPDEST AND DUP1 ISZERO PUSH2 0x130C JUMPI DUP1 PUSH1 0x0 MSTORE PUSH1 0x3 PUSH1 0x20 MSTORE PUSH1 0xFF PUSH1 0x40 PUSH1 0x0 KECCAK256 SLOAD AND PUSH2 0x12CE JUMPI DUP1 PUSH1 0x0 MSTORE PUSH1 0x3 PUSH1 0x20 MSTORE PUSH1 0x40 PUSH1 0x0 KECCAK256 PUSH1 0x1 PUSH1 0xFF NOT DUP3 SLOAD AND OR SWAP1 SSTORE PUSH32 0xAC6FA858E9350A46CEC16539926E0FDE25B7629F84B5A72BFFAAE4DF888AE86D PUSH1 0x0 DUP1 LOG2 STOP JUMPDEST PUSH1 0x40 MLOAD PUSH3 0x461BCD PUSH1 0xE5 SHL DUP2 MSTORE PUSH1 0x20 PUSH1 0x4 DUP3 ADD MSTORE PUSH1 0x16 PUSH1 0x24 DUP3 ADD MSTORE PUSH22 0x4F70657261646F72207961206175746F72697A61646F PUSH1 0x50 SHL PUSH1 0x44 DUP3 ADD MSTORE PUSH1 0x64 SWAP1 REVERT JUMPDEST PUSH1 0x40 MLOAD PUSH3 0x461BCD PUSH1 0xE5 SHL DUP2 MSTORE PUSH1 0x20 PUSH1 0x4 DUP3 ADD MSTORE PUSH1 0x12 PUSH1 0x24 DUP3 ADD MSTORE PUSH18 0x446972656363696F6E20696E76616C696461 PUSH1 0x70 SHL PUSH1 0x44 DUP3 ADD MSTORE PUSH1 0x64 SWAP1 REVERT JUMPDEST CALLVALUE PUSH2 0x185 JUMPI PUSH2 0x1354 CALLDATASIZE PUSH2 0x1A2D JUMP JUMPDEST SWAP1 PUSH1 0x2 PUSH1 0x0 SLOAD EQ PUSH2 0x17DD JUMPI PUSH1 0x2 PUSH1 0x0 SSTORE PUSH2 0x1371 PUSH1 0x5 SLOAD DUP3 LT PUSH2 0x1C3D JUMP JUMPDEST DUP1 PUSH1 0x0 MSTORE PUSH1 0x20 PUSH1 0x4 DUP2 MSTORE PUSH1 0xFF PUSH1 0x4 PUSH1 0x40 PUSH1 0x0 KECCAK256 ADD SLOAD AND ISZERO PUSH2 0x17A4 JUMPI DUP2 PUSH1 0x0 MSTORE PUSH1 0x4 DUP2 MSTORE PUSH1 0x2 PUSH1 0x40 PUSH1 0x0 KECCAK256 ADD SLOAD TIMESTAMP LT PUSH2 0x1769 JUMPI DUP2 PUSH1 0x0 MSTORE PUSH1 0x4 DUP2 MSTORE PUSH1 0x3 PUSH1 0x40 PUSH1 0x0 KECCAK256 ADD SLOAD TIMESTAMP GT PUSH2 0x172F JUMPI DUP2 PUSH1 0x0 MSTORE PUSH1 0x4 DUP2 MSTORE PUSH1 0x8 SWAP2 DUP3 PUSH1 0x40 PUSH1 0x0 KECCAK256 ADD CALLER PUSH1 0x0 MSTORE DUP3 MSTORE PUSH1 0xFF PUSH1 0x40 PUSH1 0x0 KECCAK256 SLOAD AND ISZERO PUSH2 0x16F2 JUMPI DUP1 PUSH1 0x0 MSTORE PUSH1 0x4 DUP3 MSTORE DUP3 PUSH1 0x40 PUSH1 0x0 KECCAK256 ADD CALLER PUSH1 0x0 MSTORE DUP3 MSTORE PUSH1 0xFF PUSH1 0x40 PUSH1 0x0 KECCAK256 SLOAD DUP5 SHR AND PUSH2 0x16AD JUMPI DUP1 PUSH1 0x0 MSTORE PUSH1 0x4 DUP3 MSTORE PUSH1 0x6 PUSH1 0x40 PUSH1 0x0 KECCAK256 ADD SLOAD DUP5 LT ISZERO PUSH2 0x1673 JUMPI PUSH1 0x1 SLOAD PUSH1 0x40 MLOAD PUSH4 0x70A08231 PUSH1 0xE0 SHL DUP2 MSTORE CALLER PUSH1 0x4 DUP3 ADD MSTORE PUSH1 0x1 PUSH1 0x1 PUSH1 0xA0 SHL SUB SWAP1 SWAP2 AND SWAP5 SWAP1 SWAP4 DUP4 DUP6 PUSH1 0x24 DUP2 DUP10 GAS STATICCALL SWAP5 DUP6 ISZERO PUSH2 0x15F3 JUMPI PUSH1 0x0 SWAP6 PUSH2 0x1644 JUMPI JUMPDEST POP PUSH8 0xDE0B6B3A7640000 DUP1 SWAP6 LT PUSH2 0x15FF JUMPI DUP4 PUSH1 0x0 SWAP6 SWAP7 PUSH1 0x64 PUSH1 0x40 MLOAD DUP1 SWAP9 DUP2 SWAP4 PUSH4 0x23B872DD PUSH1 0xE0 SHL DUP4 MSTORE CALLER PUSH1 0x4 DUP5 ADD MSTORE ADDRESS PUSH1 0x24 DUP5 ADD MSTORE DUP12 PUSH1 0x44 DUP5 ADD MSTORE GAS CALL SWAP5 DUP6 ISZERO PUSH2 0x15F3 JUMPI PUSH32 0x2EFA3C8729BB4709645A357FCBDACBAE23C038445BDB417A51D8C1DCC68BE465 SWAP6 PUSH2 0x14CF SWAP2 PUSH1 0x0 SWAP2 PUSH2 0x15C6 JUMPI JUMPDEST POP PUSH2 0x1CE6 JUMP JUMPDEST DUP3 PUSH1 0x0 MSTORE PUSH1 0x4 DUP5 MSTORE DUP1 PUSH1 0x40 PUSH1 0x0 KECCAK256 ADD CALLER PUSH1 0x0 MSTORE DUP5 MSTORE PUSH1 0x40 PUSH1 0x0 KECCAK256 PUSH2 0x100 PUSH2 0xFF00 NOT DUP3 SLOAD AND OR SWAP1 SSTORE DUP3 PUSH1 0x0 MSTORE PUSH1 0x4 DUP5 MSTORE DUP1 PUSH1 0x40 PUSH1 0x0 KECCAK256 ADD CALLER PUSH1 0x0 MSTORE DUP5 MSTORE TIMESTAMP PUSH1 0x1 PUSH1 0x40 PUSH1 0x0 KECCAK256 ADD SSTORE DUP3 PUSH1 0x0 MSTORE PUSH1 0x4 DUP5 MSTORE PUSH1 0x40 PUSH1 0x0 KECCAK256 ADD CALLER PUSH1 0x0 MSTORE DUP4 MSTORE DUP1 PUSH1 0x2 PUSH1 0x40 PUSH1 0x0 KECCAK256 ADD SSTORE DUP2 PUSH1 0x0 MSTORE PUSH1 0x4 DUP4 MSTORE PUSH1 0x5 PUSH1 0x40 PUSH1 0x0 KECCAK256 ADD DUP2 PUSH1 0x0 MSTORE DUP4 MSTORE PUSH1 0x2 PUSH1 0x40 PUSH1 0x0 KECCAK256 ADD PUSH2 0x155B DUP2 SLOAD PUSH2 0x1C18 JUMP JUMPDEST SWAP1 SSTORE DUP2 PUSH1 0x0 MSTORE PUSH1 0x4 DUP4 MSTORE PUSH1 0x7 PUSH1 0x40 PUSH1 0x0 KECCAK256 ADD PUSH2 0x1577 DUP2 SLOAD PUSH2 0x1C18 JUMP JUMPDEST SWAP1 SSTORE DUP2 PUSH1 0x0 MSTORE PUSH1 0x4 DUP4 MSTORE TIMESTAMP PUSH1 0xC PUSH1 0x40 PUSH1 0x0 KECCAK256 ADD SSTORE PUSH1 0x40 MLOAD SWAP1 DUP2 MSTORE PUSH32 0xB4CFECF70861B7B150D8337780D34FB4CBC2114B5FB1FE51A5C5FCA1849F7274 DUP4 CALLER SWAP3 LOG3 PUSH1 0x40 MLOAD SWAP3 DUP4 MSTORE CALLER SWAP3 LOG2 PUSH1 0x1 PUSH1 0x0 SSTORE STOP JUMPDEST PUSH2 0x15E6 SWAP2 POP DUP7 RETURNDATASIZE DUP9 GT PUSH2 0x15EC JUMPI JUMPDEST PUSH2 0x15DE DUP2 DUP4 PUSH2 0x1A7D JUMP JUMPDEST DUP2 ADD SWAP1 PUSH2 0x1CCE JUMP JUMPDEST DUP9 PUSH2 0x14C9 JUMP JUMPDEST POP RETURNDATASIZE PUSH2 0x15D4 JUMP JUMPDEST PUSH1 0x40 MLOAD RETURNDATASIZE PUSH1 0x0 DUP3 RETURNDATACOPY RETURNDATASIZE SWAP1 REVERT JUMPDEST PUSH1 0x40 MLOAD PUSH3 0x461BCD PUSH1 0xE5 SHL DUP2 MSTORE PUSH1 0x4 DUP2 ADD DUP6 SWAP1 MSTORE PUSH1 0x1F PUSH1 0x24 DUP3 ADD MSTORE PUSH32 0x546F6B656E7320696E737566696369656E746573207061726120766F74617200 PUSH1 0x44 DUP3 ADD MSTORE PUSH1 0x64 SWAP1 REVERT JUMPDEST SWAP1 SWAP5 POP DUP4 DUP2 DUP2 RETURNDATASIZE DUP4 GT PUSH2 0x166C JUMPI JUMPDEST PUSH2 0x165C DUP2 DUP4 PUSH2 0x1A7D JUMP JUMPDEST DUP2 ADD SUB SLT PUSH2 0x185 JUMPI MLOAD SWAP4 DUP7 PUSH2 0x1457 JUMP JUMPDEST POP RETURNDATASIZE PUSH2 0x1652 JUMP JUMPDEST PUSH1 0x40 MLOAD PUSH3 0x461BCD PUSH1 0xE5 SHL DUP2 MSTORE PUSH1 0x4 DUP2 ADD DUP4 SWAP1 MSTORE PUSH1 0x12 PUSH1 0x24 DUP3 ADD MSTORE PUSH18 0x43616E64696461746F20696E76616C69646F PUSH1 0x70 SHL PUSH1 0x44 DUP3 ADD MSTORE PUSH1 0x64 SWAP1 REVERT JUMPDEST PUSH1 0x40 MLOAD PUSH3 0x461BCD PUSH1 0xE5 SHL DUP2 MSTORE PUSH1 0x4 DUP2 ADD DUP4 SWAP1 MSTORE PUSH1 0x1B PUSH1 0x24 DUP3 ADD MSTORE PUSH32 0x596120766F746173746520656E206573746120656C656363696F6E0000000000 PUSH1 0x44 DUP3 ADD MSTORE PUSH1 0x64 SWAP1 REVERT JUMPDEST PUSH1 0x40 MLOAD PUSH3 0x461BCD PUSH1 0xE5 SHL DUP2 MSTORE PUSH1 0x4 DUP2 ADD DUP4 SWAP1 MSTORE PUSH1 0x15 PUSH1 0x24 DUP3 ADD MSTORE PUSH21 0x566F74616E7465206E6F207265676973747261646F PUSH1 0x58 SHL PUSH1 0x44 DUP3 ADD MSTORE PUSH1 0x64 SWAP1 REVERT JUMPDEST PUSH1 0x64 SWAP1 PUSH1 0x40 MLOAD SWAP1 PUSH3 0x461BCD PUSH1 0xE5 SHL DUP3 MSTORE PUSH1 0x4 DUP3 ADD MSTORE PUSH1 0x13 PUSH1 0x24 DUP3 ADD MSTORE PUSH19 0x456C656363696F6E2066696E616C697A616461 PUSH1 0x68 SHL PUSH1 0x44 DUP3 ADD MSTORE REVERT JUMPDEST PUSH1 0x64 SWAP1 PUSH1 0x40 MLOAD SWAP1 PUSH3 0x461BCD PUSH1 0xE5 SHL DUP3 MSTORE PUSH1 0x4 DUP3 ADD MSTORE PUSH1 0x14 PUSH1 0x24 DUP3 ADD MSTORE PUSH20 0x456C656363696F6E206E6F20696E696369616461 PUSH1 0x60 SHL PUSH1 0x44 DUP3 ADD MSTORE REVERT JUMPDEST PUSH1 0x64 SWAP1 PUSH1 0x40 MLOAD SWAP1 PUSH3 0x461BCD PUSH1 0xE5 SHL DUP3 MSTORE PUSH1 0x4 DUP3 ADD MSTORE PUSH1 0x12 PUSH1 0x24 DUP3 ADD MSTORE PUSH18 0x456C656363696F6E206E6F20616374697661 PUSH1 0x70 SHL PUSH1 0x44 DUP3 ADD MSTORE REVERT JUMPDEST PUSH1 0x40 MLOAD PUSH3 0x461BCD PUSH1 0xE5 SHL DUP2 MSTORE PUSH1 0x20 PUSH1 0x4 DUP3 ADD MSTORE PUSH1 0x1F PUSH1 0x24 DUP3 ADD MSTORE PUSH32 0x5265656E7472616E637947756172643A207265656E7472616E742063616C6C00 PUSH1 0x44 DUP3 ADD MSTORE PUSH1 0x64 SWAP1 REVERT JUMPDEST CALLVALUE PUSH2 0x185 JUMPI PUSH1 0x20 CALLDATASIZE PUSH1 0x3 NOT ADD SLT PUSH2 0x185 JUMPI PUSH1 0x4 CALLDATALOAD PUSH2 0x184B PUSH1 0x1 DUP1 PUSH1 0xA0 SHL SUB PUSH1 0x2 SLOAD AND CALLER EQ PUSH2 0x1D32 JUMP JUMPDEST PUSH2 0x1858 PUSH1 0x5 SLOAD DUP3 LT PUSH2 0x1C3D JUMP JUMPDEST DUP1 PUSH1 0x0 MSTORE PUSH1 0x4 PUSH1 0x20 MSTORE PUSH2 0x1876 PUSH1 0xFF PUSH1 0xA PUSH1 0x40 PUSH1 0x0 KECCAK256 ADD SLOAD AND ISZERO PUSH2 0x1C82 JUMP JUMPDEST DUP1 PUSH1 0x0 MSTORE PUSH1 0x4 PUSH1 0x20 MSTORE PUSH1 0x4 PUSH1 0x40 PUSH1 0x0 KECCAK256 ADD PUSH1 0xFF NOT SWAP1 DUP2 DUP2 SLOAD AND SWAP1 SSTORE PUSH1 0x1 PUSH1 0xA PUSH1 0x40 PUSH1 0x0 KECCAK256 ADD SWAP2 DUP3 SLOAD AND OR SWAP1 SSTORE TIMESTAMP PUSH1 0xC PUSH1 0x40 PUSH1 0x0 KECCAK256 ADD SSTORE PUSH32 0x63766CD591E04CB4E6EFCFAAEA14AAD1FB0F36F02CE7C571B65B405C9DFEBBCC PUSH1 0x0 DUP1 LOG2 STOP JUMPDEST CALLVALUE PUSH2 0x185 JUMPI PUSH1 0x40 CALLDATASIZE PUSH1 0x3 NOT ADD SLT PUSH2 0x185 JUMPI PUSH2 0x18EC PUSH2 0x1A01 JUMP JUMPDEST PUSH1 0x24 CALLDATALOAD SWAP1 PUSH1 0x1 DUP1 PUSH1 0xA0 SHL SUB DUP1 SWAP2 PUSH2 0x1908 DUP3 PUSH1 0x2 SLOAD AND CALLER EQ PUSH2 0x1D32 JUMP JUMPDEST AND SWAP2 DUP3 ISZERO PUSH2 0x19BC JUMPI DUP1 ISZERO PUSH2 0x1977 JUMPI PUSH1 0x44 PUSH1 0x20 SWAP3 PUSH1 0x1 SLOAD AND SWAP4 PUSH1 0x0 PUSH1 0x40 MLOAD SWAP6 DUP7 SWAP5 DUP6 SWAP4 PUSH4 0xA9059CBB PUSH1 0xE0 SHL DUP6 MSTORE PUSH1 0x4 DUP6 ADD MSTORE PUSH1 0x24 DUP5 ADD MSTORE GAS CALL DUP1 ISZERO PUSH2 0x15F3 JUMPI PUSH2 0x1957 SWAP2 PUSH1 0x0 SWAP2 PUSH2 0x1959 JUMPI POP PUSH2 0x1CE6 JUMP JUMPDEST STOP JUMPDEST PUSH2 0x1971 SWAP2 POP PUSH1 0x20 RETURNDATASIZE DUP2 GT PUSH2 0x15EC JUMPI PUSH2 0x15DE DUP2 DUP4 PUSH2 0x1A7D JUMP JUMPDEST DUP3 PUSH2 0x14C9 JUMP JUMPDEST PUSH1 0x40 MLOAD PUSH3 0x461BCD PUSH1 0xE5 SHL DUP2 MSTORE PUSH1 0x20 PUSH1 0x4 DUP3 ADD MSTORE PUSH1 0x1E PUSH1 0x24 DUP3 ADD MSTORE PUSH32 0x456C206D6F6E746F206465626520736572206D61796F722061206365726F0000 PUSH1 0x44 DUP3 ADD MSTORE PUSH1 0x64 SWAP1 REVERT JUMPDEST PUSH1 0x40 MLOAD PUSH3 0x461BCD PUSH1 0xE5 SHL DUP2 MSTORE PUSH1 0x20 PUSH1 0x4 DUP3 ADD MSTORE PUSH1 0x1D PUSH1 0x24 DUP3 ADD MSTORE PUSH32 0x446972656363696F6E2064652064657374696E6F20696E76616C696461000000 PUSH1 0x44 DUP3 ADD MSTORE PUSH1 0x64 SWAP1 REVERT JUMPDEST PUSH1 0x4 CALLDATALOAD SWAP1 PUSH1 0x1 PUSH1 0x1 PUSH1 0xA0 SHL SUB DUP3 AND DUP3 SUB PUSH2 0x185 JUMPI JUMP JUMPDEST PUSH1 0x24 CALLDATALOAD SWAP1 PUSH1 0x1 PUSH1 0x1 PUSH1 0xA0 SHL SUB DUP3 AND DUP3 SUB PUSH2 0x185 JUMPI JUMP JUMPDEST PUSH1 0x40 SWAP1 PUSH1 0x3 NOT ADD SLT PUSH2 0x185 JUMPI PUSH1 0x4 CALLDATALOAD SWAP1 PUSH1 0x24 CALLDATALOAD SWAP1 JUMP JUMPDEST SWAP1 PUSH1 0x1 DUP3 DUP2 SHR SWAP3 AND DUP1 ISZERO PUSH2 0x1A73 JUMPI JUMPDEST PUSH1 0x20 DUP4 LT EQ PUSH2 0x1A5D JUMPI JUMP JUMPDEST PUSH4 0x4E487B71 PUSH1 0xE0 SHL PUSH1 0x0 MSTORE PUSH1 0x22 PUSH1 0x4 MSTORE PUSH1 0x24 PUSH1 0x0 REVERT JUMPDEST SWAP2 PUSH1 0x7F AND SWAP2 PUSH2 0x1A52 JUMP JUMPDEST SWAP1 PUSH1 0x1F DUP1 NOT SWAP2 ADD AND DUP2 ADD SWAP1 DUP2 LT PUSH8 0xFFFFFFFFFFFFFFFF DUP3 GT OR PUSH2 0x4AA JUMPI PUSH1 0x40 MSTORE JUMP JUMPDEST SWAP1 PUSH1 0x40 MLOAD SWAP2 DUP3 PUSH1 0x0 DUP3 SLOAD SWAP3 PUSH2 0x1AB3 DUP5 PUSH2 0x1A43 JUMP JUMPDEST SWAP1 DUP2 DUP5 MSTORE PUSH1 0x1 SWAP5 DUP6 DUP2 AND SWAP1 DUP2 PUSH1 0x0 EQ PUSH2 0x1B22 JUMPI POP PUSH1 0x1 EQ PUSH2 0x1ADF JUMPI JUMPDEST POP POP PUSH2 0x1ADD SWAP3 POP SUB DUP4 PUSH2 0x1A7D JUMP JUMPDEST JUMP JUMPDEST SWAP1 SWAP4 SWAP2 POP PUSH1 0x0 MSTORE PUSH1 0x20 SWAP1 DUP2 PUSH1 0x0 KECCAK256 SWAP4 PUSH1 0x0 SWAP2 JUMPDEST DUP2 DUP4 LT PUSH2 0x1B0A JUMPI POP POP PUSH2 0x1ADD SWAP4 POP DUP3 ADD ADD CODESIZE DUP1 PUSH2 0x1ACF JUMP JUMPDEST DUP6 SLOAD DUP9 DUP5 ADD DUP6 ADD MSTORE SWAP5 DUP6 ADD SWAP5 DUP8 SWAP5 POP SWAP2 DUP4 ADD SWAP2 PUSH2 0x1AF2 JUMP JUMPDEST SWAP2 POP POP PUSH2 0x1ADD SWAP5 POP PUSH1 0x20 SWAP3 POP PUSH1 0xFF NOT AND DUP3 DUP5 ADD MSTORE ISZERO ISZERO PUSH1 0x5 SHL DUP3 ADD ADD CODESIZE DUP1 PUSH2 0x1ACF JUMP JUMPDEST SWAP2 SWAP1 DUP3 MLOAD SWAP3 DUP4 DUP3 MSTORE PUSH1 0x0 JUMPDEST DUP5 DUP2 LT PUSH2 0x1B71 JUMPI POP POP DUP3 PUSH1 0x0 PUSH1 0x20 DUP1 SWAP5 SWAP6 DUP5 ADD ADD MSTORE PUSH1 0x1F DUP1 NOT SWAP2 ADD AND ADD ADD SWAP1 JUMP JUMPDEST PUSH1 0x20 DUP2 DUP4 ADD DUP2 ADD MLOAD DUP5 DUP4 ADD DUP3 ADD MSTORE ADD PUSH2 0x1B50 JUMP JUMPDEST DUP2 PUSH1 0x1F DUP3 ADD SLT ISZERO PUSH2 0x185 JUMPI DUP1 CALLDATALOAD SWAP1 PUSH8 0xFFFFFFFFFFFFFFFF DUP3 GT PUSH2 0x4AA JUMPI PUSH1 0x40 MLOAD SWAP3 PUSH2 0x1BBA PUSH1 0x1F DUP5 ADD PUSH1 0x1F NOT AND PUSH1 0x20 ADD DUP6 PUSH2 0x1A7D JUMP JUMPDEST DUP3 DUP5 MSTORE PUSH1 0x20 DUP4 DUP4 ADD ADD GT PUSH2 0x185 JUMPI DUP2 PUSH1 0x0 SWAP3 PUSH1 0x20 DUP1 SWAP4 ADD DUP4 DUP7 ADD CALLDATACOPY DUP4 ADD ADD MSTORE SWAP1 JUMP JUMPDEST ISZERO PUSH2 0x1BE3 JUMPI JUMP JUMPDEST PUSH1 0x40 MLOAD PUSH3 0x461BCD PUSH1 0xE5 SHL DUP2 MSTORE PUSH1 0x20 PUSH1 0x4 DUP3 ADD MSTORE PUSH1 0xD PUSH1 0x24 DUP3 ADD MSTORE PUSH13 0x4E6F206175746F72697A61646F PUSH1 0x98 SHL PUSH1 0x44 DUP3 ADD MSTORE PUSH1 0x64 SWAP1 REVERT JUMPDEST PUSH1 0x0 NOT DUP2 EQ PUSH2 0x1C27 JUMPI PUSH1 0x1 ADD SWAP1 JUMP JUMPDEST PUSH4 0x4E487B71 PUSH1 0xE0 SHL PUSH1 0x0 MSTORE PUSH1 0x11 PUSH1 0x4 MSTORE PUSH1 0x24 PUSH1 0x0 REVERT JUMPDEST ISZERO PUSH2 0x1C44 JUMPI JUMP JUMPDEST PUSH1 0x40 MLOAD PUSH3 0x461BCD PUSH1 0xE5 SHL DUP2 MSTORE PUSH1 0x20 PUSH1 0x4 DUP3 ADD MSTORE PUSH1 0x16 PUSH1 0x24 DUP3 ADD MSTORE PUSH22 0x456C656363696F6E206E6F20656E636F6E7472616461 PUSH1 0x50 SHL PUSH1 0x44 DUP3 ADD MSTORE PUSH1 0x64 SWAP1 REVERT JUMPDEST ISZERO PUSH2 0x1C89 JUMPI JUMP JUMPDEST PUSH1 0x40 MLOAD PUSH3 0x461BCD PUSH1 0xE5 SHL DUP2 MSTORE PUSH1 0x20 PUSH1 0x4 DUP3 ADD MSTORE PUSH1 0x19 PUSH1 0x24 DUP3 ADD MSTORE PUSH32 0x526573756C7461646F732079612066696E616C697A61646F7300000000000000 PUSH1 0x44 DUP3 ADD MSTORE PUSH1 0x64 SWAP1 REVERT JUMPDEST SWAP1 DUP2 PUSH1 0x20 SWAP2 SUB SLT PUSH2 0x185 JUMPI MLOAD DUP1 ISZERO ISZERO DUP2 SUB PUSH2 0x185 JUMPI SWAP1 JUMP JUMPDEST ISZERO PUSH2 0x1CED JUMPI JUMP JUMPDEST PUSH1 0x40 MLOAD PUSH3 0x461BCD PUSH1 0xE5 SHL DUP2 MSTORE PUSH1 0x20 PUSH1 0x4 DUP3 ADD MSTORE PUSH1 0x1A PUSH1 0x24 DUP3 ADD MSTORE PUSH32 0x4572726F7220616C207472616E73666572697220746F6B656E73000000000000 PUSH1 0x44 DUP3 ADD MSTORE PUSH1 0x64 SWAP1 REVERT JUMPDEST ISZERO PUSH2 0x1D39 JUMPI JUMP JUMPDEST PUSH1 0x40 MLOAD PUSH3 0x461BCD PUSH1 0xE5 SHL DUP2 MSTORE PUSH1 0x20 PUSH1 0x4 DUP3 ADD MSTORE PUSH1 0x30 PUSH1 0x24 DUP3 ADD MSTORE PUSH32 0x536F6C6F20656C2061646D696E6973747261646F72207075656465207265616C PUSH1 0x44 DUP3 ADD MSTORE PUSH16 0x34BD30B91032B9BA309030B1B1B4B7B7 PUSH1 0x81 SHL PUSH1 0x64 DUP3 ADD MSTORE PUSH1 0x84 SWAP1 REVERT JUMPDEST PUSH1 0x5 SLOAD DUP2 LT ISZERO PUSH2 0x1EB6 JUMPI PUSH1 0x0 SWAP2 DUP2 DUP4 MSTORE PUSH1 0x20 PUSH1 0x4 DUP2 MSTORE PUSH1 0x40 SWAP2 PUSH1 0xFF PUSH1 0x4 DUP5 DUP8 KECCAK256 ADD SLOAD AND ISZERO PUSH2 0x1EA7 JUMPI PUSH1 0x2 DUP4 DUP7 KECCAK256 ADD SLOAD TIMESTAMP LT PUSH2 0x1EA7 JUMPI PUSH1 0x3 DUP4 DUP7 KECCAK256 ADD SLOAD TIMESTAMP GT PUSH2 0x1EA7 JUMPI PUSH1 0x8 DUP4 DUP7 KECCAK256 ADD SWAP4 PUSH1 0x1 DUP1 PUSH1 0xA0 SHL SUB DUP1 SWAP3 AND SWAP5 DUP6 DUP8 MSTORE DUP4 MSTORE PUSH1 0xFF DUP5 DUP8 KECCAK256 SLOAD AND ISZERO PUSH2 0x1EAE JUMPI DUP6 MSTORE PUSH1 0x4 DUP3 MSTORE PUSH1 0x8 DUP4 DUP7 KECCAK256 ADD DUP5 DUP7 MSTORE DUP3 MSTORE PUSH1 0xFF DUP4 DUP7 KECCAK256 SLOAD PUSH1 0x8 SHR AND PUSH2 0x1EA7 JUMPI DUP2 SWAP1 PUSH1 0x1 SLOAD AND SWAP4 PUSH1 0x24 DUP5 MLOAD DUP1 SWAP7 DUP2 SWAP4 PUSH4 0x70A08231 PUSH1 0xE0 SHL DUP4 MSTORE PUSH1 0x4 DUP4 ADD MSTORE GAS STATICCALL SWAP2 DUP3 ISZERO PUSH2 0x1E9E JUMPI POP DUP4 SWAP2 PUSH2 0x1E64 JUMPI JUMPDEST POP PUSH8 0xDE0B6B3A7640000 SWAP2 POP LT PUSH2 0x1E61 JUMPI POP PUSH1 0x1 SWAP1 JUMP JUMPDEST SWAP1 JUMP JUMPDEST SWAP1 POP DUP2 DUP2 RETURNDATASIZE DUP4 GT PUSH2 0x1E97 JUMPI JUMPDEST PUSH2 0x1E7A DUP2 DUP4 PUSH2 0x1A7D JUMP JUMPDEST DUP2 ADD SUB SLT PUSH2 0x1E93 JUMPI PUSH8 0xDE0B6B3A7640000 SWAP1 MLOAD CODESIZE PUSH2 0x1E4A JUMP JUMPDEST POP DUP1 REVERT JUMPDEST POP RETURNDATASIZE PUSH2 0x1E70 JUMP JUMPDEST MLOAD RETURNDATASIZE DUP6 DUP3 RETURNDATACOPY RETURNDATASIZE SWAP1 REVERT JUMPDEST POP POP POP POP SWAP1 JUMP JUMPDEST POP POP POP POP POP SWAP1 JUMP JUMPDEST POP POP PUSH1 0x0 SWAP1 JUMP INVALID LOG2 PUSH5 0x6970667358 0x22 SLT KECCAK256 BLOCKHASH 0xB2 0xF9 0xB3 SUB SIGNEXTEND 0x25 BALANCE PUSH10 0x7BEE1E37523E19720EF4 PUSH23 0x63FC988823DDB2AE41011DE264736F6C63430008110033 "},"methodIdentifiers":{"TOKENS_REQUIRED_TO_VOTE()":"929504a1","addAuthorizedOperator(address)":"404d2cf8","addCandidate(uint256,string,string)":"e6c62efc","admin()":"f851a440","authorizedOperators(address)":"181d989b","canVote(uint256,address)":"cdb2867b","castVote(uint256,uint256)":"2c0a3f89","createElection(string,string,uint256,uint256)":"7ad36e84","electionCount()":"997d2830","elections(uint256)":"5e6fef01","finalizeElection(uint256)":"1537052e","getCandidateInfo(uint256,uint256)":"73a12f5a","getElectionInfo(uint256)":"ce99b5df","getVoterAddresses(uint256)":"c5326ebc","getVoterInfo(uint256,address)":"fbc759a1","isAuthorizedOperator(address)":"82d52c1e","registerVoter(uint256,address)":"94c790bb","removeAuthorizedOperator(address)":"e3f8a79c","votingToken()":"b0340123","withdrawTokens(address,uint256)":"06b091f9"}}}}}