{"contracts/Verifier.sol":{"Verifier":{"abi":[{"inputs":[],"stateMutability":"nonpayable","type":"constructor"},{"inputs":[{"internalType":"uint256[2]","name":"_pA","type":"uint256[2]"},{"internalType":"uint256[2][2]","name":"_pB","type":"uint256[2][2]"},{"internalType":"uint256[2]","name":"_pC","type":"uint256[2]"},{"internalType":"uint256[3]","name":"_pubSignals","type":"uint256[3]"}],"name":"verifyProof","outputs":[{"internalType":"bool","name":"r","type":"bool"}],"stateMutability":"view","type":"function"},{"inputs":[{"internalType":"uint256","name":"","type":"uint256"}],"name":"vk_alpha_1","outputs":[{"internalType":"uint256","name":"","type":"uint256"}],"stateMutability":"view","type":"function"},{"inputs":[{"internalType":"uint256","name":"","type":"uint256"},{"internalType":"uint256","name":"","type":"uint256"}],"name":"vk_beta_2","outputs":[{"internalType":"uint256","name":"","type":"uint256"}],"stateMutability":"view","type":"function"},{"inputs":[{"internalType":"uint256","name":"","type":"uint256"},{"internalType":"uint256","name":"","type":"uint256"}],"name":"vk_delta_2","outputs":[{"internalType":"uint256","name":"","type":"uint256"}],"stateMutability":"view","type":"function"},{"inputs":[{"internalType":"uint256","name":"","type":"uint256"},{"internalType":"uint256","name":"","type":"uint256"}],"name":"vk_gamma_2","outputs":[{"internalType":"uint256","name":"","type":"uint256"}],"stateMutability":"view","type":"function"},{"inputs":[{"internalType":"uint256","name":"","type":"uint256"}],"name":"vk_ic0","outputs":[{"internalType":"uint256","name":"","type":"uint256"}],"stateMutability":"view","type":"function"},{"inputs":[{"internalType":"uint256","name":"","type":"uint256"},{"internalType":"uint256","name":"","type":"uint256"}],"name":"vk_ic_public","outputs":[{"internalType":"uint256","name":"","type":"uint256"}],"stateMutability":"view","type":"function"}],"evm":{"bytecode":{"linkReferences":{},"object":"60808060405234610016576104a8908161001c8239f35b600080fdfe604060808152600436101561001357600080fd5b600090813560e01c806311479fea146101bd5780631e05be571461018857806340f66dd9146101535780636983a03d1461011057806378cf0dfb146100e3578063909eb5ba1461009d5763ec5eb5271461006c57600080fd5b346100995760203660031901126100995760043560028110156100955760209250549051908152f35b8280fd5b5080fd5b5034610099576100ac36610389565b9260038210156100e05760028410156100e057506020926100d29160011b6010016103a4565b90549060031b1c9051908152f35b80fd5b50346100995760203660031901126100995760043560028110156100955760209250600e01549051908152f35b50346100995761011f36610389565b9260028210156100e05760028410156100e057506020926101459160011b600a016103a4565b91905490519160031b1c8152f35b50346100995761016236610389565b9260028210156100e05760028410156100e057506020926101459160011b6002016103a4565b50346100995761019736610389565b9260028210156100e05760028410156100e057506020926101459160011b6006016103a4565b503461009957610160366003190112610099573660231215610099576101e1610353565b90816044923684116102de576004905b848210610343575050366063121561033f5761020b610353565b8060c49436861161033b57905b8582106102e25750503660e312156102de57610232610353565b9081610104953687116102da57905b8682106102ca5750503661012312156102c6578351926060840184811067ffffffffffffffff8211176102b257855283610164963688116102ae5760209850905b87821061029f5750506102969495506103ca565b90519015158152f35b81358152908801908801610282565b8880fd5b634e487b7160e01b88526041600452602488fd5b8580fd5b8135815260209182019101610241565b8780fd5b8480fd5b36601f8301121561033b576102f5610353565b808684013681116103375791879285949294905b80821061032157505081529201916020019050610218565b813586526020958601958a955090910190610309565b8980fd5b8680fd5b8380fd5b81358152602091820191016101f1565b604051906040820182811067ffffffffffffffff82111761037357604052565b634e487b7160e01b600052604160045260246000fd5b604090600319011261039f576004359060243590565b600080fd5b60028210156103b4570190600090565b634e487b7160e01b600052603260045260246000fd5b9291909260009283905b60038210610437575050511515928361042b575b5082610420575b5081610416575b508061040b575b61040657600190565b600190565b5060005415156103fd565b90501515386103f6565b5115159150386103ef565b515115159250386103e8565b90938460051b820151810180911161045c5793600019811461045c57600101906103d4565b634e487b7160e01b600052601160045260246000fdfea26469706673582212207d3e01d82a813b5a6d766bf78261cf59c4836569e2cf88d5b3598e9d353c703e64736f6c63430008110033","opcodes":"PUSH1 0x80 DUP1 PUSH1 0x40 MSTORE CALLVALUE PUSH2 0x16 JUMPI PUSH2 0x4A8 SWAP1 DUP2 PUSH2 0x1C DUP3 CODECOPY RETURN JUMPDEST PUSH1 0x0 DUP1 REVERT INVALID PUSH1 0x40 PUSH1 0x80 DUP2 MSTORE PUSH1 0x4 CALLDATASIZE LT ISZERO PUSH2 0x13 JUMPI PUSH1 0x0 DUP1 REVERT JUMPDEST PUSH1 0x0 SWAP1 DUP2 CALLDATALOAD PUSH1 0xE0 SHR DUP1 PUSH4 0x11479FEA EQ PUSH2 0x1BD JUMPI DUP1 PUSH4 0x1E05BE57 EQ PUSH2 0x188 JUMPI DUP1 PUSH4 0x40F66DD9 EQ PUSH2 0x153 JUMPI DUP1 PUSH4 0x6983A03D EQ PUSH2 0x110 JUMPI DUP1 PUSH4 0x78CF0DFB EQ PUSH2 0xE3 JUMPI DUP1 PUSH4 0x909EB5BA EQ PUSH2 0x9D JUMPI PUSH4 0xEC5EB527 EQ PUSH2 0x6C JUMPI PUSH1 0x0 DUP1 REVERT JUMPDEST CALLVALUE PUSH2 0x99 JUMPI PUSH1 0x20 CALLDATASIZE PUSH1 0x3 NOT ADD SLT PUSH2 0x99 JUMPI PUSH1 0x4 CALLDATALOAD PUSH1 0x2 DUP2 LT ISZERO PUSH2 0x95 JUMPI PUSH1 0x20 SWAP3 POP SLOAD SWAP1 MLOAD SWAP1 DUP2 MSTORE RETURN JUMPDEST DUP3 DUP1 REVERT JUMPDEST POP DUP1 REVERT JUMPDEST POP CALLVALUE PUSH2 0x99 JUMPI PUSH2 0xAC CALLDATASIZE PUSH2 0x389 JUMP JUMPDEST SWAP3 PUSH1 0x3 DUP3 LT ISZERO PUSH2 0xE0 JUMPI PUSH1 0x2 DUP5 LT ISZERO PUSH2 0xE0 JUMPI POP PUSH1 0x20 SWAP3 PUSH2 0xD2 SWAP2 PUSH1 0x1 SHL PUSH1 0x10 ADD PUSH2 0x3A4 JUMP JUMPDEST SWAP1 SLOAD SWAP1 PUSH1 0x3 SHL SHR SWAP1 MLOAD SWAP1 DUP2 MSTORE RETURN JUMPDEST DUP1 REVERT JUMPDEST POP CALLVALUE PUSH2 0x99 JUMPI PUSH1 0x20 CALLDATASIZE PUSH1 0x3 NOT ADD SLT PUSH2 0x99 JUMPI PUSH1 0x4 CALLDATALOAD PUSH1 0x2 DUP2 LT ISZERO PUSH2 0x95 JUMPI PUSH1 0x20 SWAP3 POP PUSH1 0xE ADD SLOAD SWAP1 MLOAD SWAP1 DUP2 MSTORE RETURN JUMPDEST POP CALLVALUE PUSH2 0x99 JUMPI PUSH2 0x11F CALLDATASIZE PUSH2 0x389 JUMP JUMPDEST SWAP3 PUSH1 0x2 DUP3 LT ISZERO PUSH2 0xE0 JUMPI PUSH1 0x2 DUP5 LT ISZERO PUSH2 0xE0 JUMPI POP PUSH1 0x20 SWAP3 PUSH2 0x145 SWAP2 PUSH1 0x1 SHL PUSH1 0xA ADD PUSH2 0x3A4 JUMP JUMPDEST SWAP2 SWAP1 SLOAD SWAP1 MLOAD SWAP2 PUSH1 0x3 SHL SHR DUP2 MSTORE RETURN JUMPDEST POP CALLVALUE PUSH2 0x99 JUMPI PUSH2 0x162 CALLDATASIZE PUSH2 0x389 JUMP JUMPDEST SWAP3 PUSH1 0x2 DUP3 LT ISZERO PUSH2 0xE0 JUMPI PUSH1 0x2 DUP5 LT ISZERO PUSH2 0xE0 JUMPI POP PUSH1 0x20 SWAP3 PUSH2 0x145 SWAP2 PUSH1 0x1 SHL PUSH1 0x2 ADD PUSH2 0x3A4 JUMP JUMPDEST POP CALLVALUE PUSH2 0x99 JUMPI PUSH2 0x197 CALLDATASIZE PUSH2 0x389 JUMP JUMPDEST SWAP3 PUSH1 0x2 DUP3 LT ISZERO PUSH2 0xE0 JUMPI PUSH1 0x2 DUP5 LT ISZERO PUSH2 0xE0 JUMPI POP PUSH1 0x20 SWAP3 PUSH2 0x145 SWAP2 PUSH1 0x1 SHL PUSH1 0x6 ADD PUSH2 0x3A4 JUMP JUMPDEST POP CALLVALUE PUSH2 0x99 JUMPI PUSH2 0x160 CALLDATASIZE PUSH1 0x3 NOT ADD SLT PUSH2 0x99 JUMPI CALLDATASIZE PUSH1 0x23 SLT ISZERO PUSH2 0x99 JUMPI PUSH2 0x1E1 PUSH2 0x353 JUMP JUMPDEST SWAP1 DUP2 PUSH1 0x44 SWAP3 CALLDATASIZE DUP5 GT PUSH2 0x2DE JUMPI PUSH1 0x4 SWAP1 JUMPDEST DUP5 DUP3 LT PUSH2 0x343 JUMPI POP POP CALLDATASIZE PUSH1 0x63 SLT ISZERO PUSH2 0x33F JUMPI PUSH2 0x20B PUSH2 0x353 JUMP JUMPDEST DUP1 PUSH1 0xC4 SWAP5 CALLDATASIZE DUP7 GT PUSH2 0x33B JUMPI SWAP1 JUMPDEST DUP6 DUP3 LT PUSH2 0x2E2 JUMPI POP POP CALLDATASIZE PUSH1 0xE3 SLT ISZERO PUSH2 0x2DE JUMPI PUSH2 0x232 PUSH2 0x353 JUMP JUMPDEST SWAP1 DUP2 PUSH2 0x104 SWAP6 CALLDATASIZE DUP8 GT PUSH2 0x2DA JUMPI SWAP1 JUMPDEST DUP7 DUP3 LT PUSH2 0x2CA JUMPI POP POP CALLDATASIZE PUSH2 0x123 SLT ISZERO PUSH2 0x2C6 JUMPI DUP4 MLOAD SWAP3 PUSH1 0x60 DUP5 ADD DUP5 DUP2 LT PUSH8 0xFFFFFFFFFFFFFFFF DUP3 GT OR PUSH2 0x2B2 JUMPI DUP6 MSTORE DUP4 PUSH2 0x164 SWAP7 CALLDATASIZE DUP9 GT PUSH2 0x2AE JUMPI PUSH1 0x20 SWAP9 POP SWAP1 JUMPDEST DUP8 DUP3 LT PUSH2 0x29F JUMPI POP POP PUSH2 0x296 SWAP5 SWAP6 POP PUSH2 0x3CA JUMP JUMPDEST SWAP1 MLOAD SWAP1 ISZERO ISZERO DUP2 MSTORE RETURN JUMPDEST DUP2 CALLDATALOAD DUP2 MSTORE SWAP1 DUP9 ADD SWAP1 DUP9 ADD PUSH2 0x282 JUMP JUMPDEST DUP9 DUP1 REVERT JUMPDEST PUSH4 0x4E487B71 PUSH1 0xE0 SHL DUP9 MSTORE PUSH1 0x41 PUSH1 0x4 MSTORE PUSH1 0x24 DUP9 REVERT JUMPDEST DUP6 DUP1 REVERT JUMPDEST DUP2 CALLDATALOAD DUP2 MSTORE PUSH1 0x20 SWAP2 DUP3 ADD SWAP2 ADD PUSH2 0x241 JUMP JUMPDEST DUP8 DUP1 REVERT JUMPDEST DUP5 DUP1 REVERT JUMPDEST CALLDATASIZE PUSH1 0x1F DUP4 ADD SLT ISZERO PUSH2 0x33B JUMPI PUSH2 0x2F5 PUSH2 0x353 JUMP JUMPDEST DUP1 DUP7 DUP5 ADD CALLDATASIZE DUP2 GT PUSH2 0x337 JUMPI SWAP2 DUP8 SWAP3 DUP6 SWAP5 SWAP3 SWAP5 SWAP1 JUMPDEST DUP1 DUP3 LT PUSH2 0x321 JUMPI POP POP DUP2 MSTORE SWAP3 ADD SWAP2 PUSH1 0x20 ADD SWAP1 POP PUSH2 0x218 JUMP JUMPDEST DUP2 CALLDATALOAD DUP7 MSTORE PUSH1 0x20 SWAP6 DUP7 ADD SWAP6 DUP11 SWAP6 POP SWAP1 SWAP2 ADD SWAP1 PUSH2 0x309 JUMP JUMPDEST DUP10 DUP1 REVERT JUMPDEST DUP7 DUP1 REVERT JUMPDEST DUP4 DUP1 REVERT JUMPDEST DUP2 CALLDATALOAD DUP2 MSTORE PUSH1 0x20 SWAP2 DUP3 ADD SWAP2 ADD PUSH2 0x1F1 JUMP JUMPDEST PUSH1 0x40 MLOAD SWAP1 PUSH1 0x40 DUP3 ADD DUP3 DUP2 LT PUSH8 0xFFFFFFFFFFFFFFFF DUP3 GT OR PUSH2 0x373 JUMPI PUSH1 0x40 MSTORE JUMP JUMPDEST PUSH4 0x4E487B71 PUSH1 0xE0 SHL PUSH1 0x0 MSTORE PUSH1 0x41 PUSH1 0x4 MSTORE PUSH1 0x24 PUSH1 0x0 REVERT JUMPDEST PUSH1 0x40 SWAP1 PUSH1 0x3 NOT ADD SLT PUSH2 0x39F JUMPI PUSH1 0x4 CALLDATALOAD SWAP1 PUSH1 0x24 CALLDATALOAD SWAP1 JUMP JUMPDEST PUSH1 0x0 DUP1 REVERT JUMPDEST PUSH1 0x2 DUP3 LT ISZERO PUSH2 0x3B4 JUMPI ADD SWAP1 PUSH1 0x0 SWAP1 JUMP JUMPDEST PUSH4 0x4E487B71 PUSH1 0xE0 SHL PUSH1 0x0 MSTORE PUSH1 0x32 PUSH1 0x4 MSTORE PUSH1 0x24 PUSH1 0x0 REVERT JUMPDEST SWAP3 SWAP2 SWAP1 SWAP3 PUSH1 0x0 SWAP3 DUP4 SWAP1 JUMPDEST PUSH1 0x3 DUP3 LT PUSH2 0x437 JUMPI POP POP MLOAD ISZERO ISZERO SWAP3 DUP4 PUSH2 0x42B JUMPI JUMPDEST POP DUP3 PUSH2 0x420 JUMPI JUMPDEST POP DUP2 PUSH2 0x416 JUMPI JUMPDEST POP DUP1 PUSH2 0x40B JUMPI JUMPDEST PUSH2 0x406 JUMPI PUSH1 0x1 SWAP1 JUMP JUMPDEST PUSH1 0x1 SWAP1 JUMP JUMPDEST POP PUSH1 0x0 SLOAD ISZERO ISZERO PUSH2 0x3FD JUMP JUMPDEST SWAP1 POP ISZERO ISZERO CODESIZE PUSH2 0x3F6 JUMP JUMPDEST MLOAD ISZERO ISZERO SWAP2 POP CODESIZE PUSH2 0x3EF JUMP JUMPDEST MLOAD MLOAD ISZERO ISZERO SWAP3 POP CODESIZE PUSH2 0x3E8 JUMP JUMPDEST SWAP1 SWAP4 DUP5 PUSH1 0x5 SHL DUP3 ADD MLOAD DUP2 ADD DUP1 SWAP2 GT PUSH2 0x45C JUMPI SWAP4 PUSH1 0x0 NOT DUP2 EQ PUSH2 0x45C JUMPI PUSH1 0x1 ADD SWAP1 PUSH2 0x3D4 JUMP JUMPDEST PUSH4 0x4E487B71 PUSH1 0xE0 SHL PUSH1 0x0 MSTORE PUSH1 0x11 PUSH1 0x4 MSTORE PUSH1 0x24 PUSH1 0x0 REVERT INVALID LOG2 PUSH5 0x6970667358 0x22 SLT KECCAK256 PUSH30 0x3E01D82A813B5A6D766BF78261CF59C4836569E2CF88D5B3598E9D353C70 RETURNDATACOPY PUSH5 0x736F6C6343 STOP ADDMOD GT STOP CALLER "},"methodIdentifiers":{"verifyProof(uint256[2],uint256[2][2],uint256[2],uint256[3])":"11479fea","vk_alpha_1(uint256)":"ec5eb527","vk_beta_2(uint256,uint256)":"40f66dd9","vk_delta_2(uint256,uint256)":"6983a03d","vk_gamma_2(uint256,uint256)":"1e05be57","vk_ic0(uint256)":"78cf0dfb","vk_ic_public(uint256,uint256)":"909eb5ba"}}}}}